:100000000C9453030C948B030C948B030C948B0370
:100010000C948B030C948B030C948B030C948B0328
:100020000C948B030C948B030C948B030C947D33F6
:100030000C942D340C940C2E0C948B030C948B0389
:100040000C948B030C948B030C948B030C94A62EB2
:100050000C948B030C948B030C948B030C948B03E8
:100060000C948B030C948B030C948B030C948B03D8
:100070000C948B0300000000000000000000000052
:100080000000000000000000000000000000000070
:100090000000000000000000000000000000000060
:1000A0000000000000000000000000000000000050
:1000B0000000000000000000000000000000000040
:1000C0000000000000000000000000000000000030
:1000D0000000000000000000000000000000000020
:1000E0000000000000000000000000000000000010
:1000F0000000000000000000000000000000000000
:1001000000000000000000000000000000000000EF
:1001100000000000000000000000000000000000DF
:1001200000000000000000000000000000000000CF
:1001300000000000000000000000000000000000BF
:1001400000000000000000000000000000000000AF
:10015000000000000000000000000000000000009F
:10016000000000000000000000000000000000008F
:10017000000000000000000000000000000000007F
:10018000000000000000000000000000000000006F
:10019000000000000000000000000000000000005F
:1001A000000000000000000000000000000000004F
:1001B000000000000000000000000000000000003F
:1001C0000000000000000000000000002A2B2800B2
:1001D00000000000000000000000000000000029F6
:1001E000000000002C1E3420212224342627252E36
:1001F000362D3738271E1F2021222324252633336E
:10020000362E37381F0405060708090A0B0C0D0E99
:100210000F101112131415161718191A1B1C1D2F65
:100220003130232D350405060708090A0B0C0D0E85
:100230000F101112131415161718191A1B1C1D2F45
:100240003130354C000000000000000000000000CC
:10025000000000000000000000000000000000009E
:1002600000000000000000007E0F00D4FFFFFFC769
:1002700000000078FD377A585A000004E6D6B446EC
:100280000200210116000000742FE5A3E005A6017D
:10029000DD5D003D8889C65436C3174FE4E2A55F93
:1002A000D6B3DA21C453505F998145329ABCE9EF45
:1002B0007E6DB4A0738730C59F411905F0CE709252
:1002C000F39C13F121CE2EAB8766ED221F616B826A
:1002D0000AAAA8AEC3878E76DEBF30DDC7EDE6176B
:1002E0001FD6A9E51EA9DB9F19A655BF16E7017BFE
:1002F00044C93F101D7137EF7CD32A40C798A76CC3
:10030000F14452B14EAC19831DB646CA4CDA03F61D
:10031000512C7F6CEF17C1946B29E358DBCDF4C5EA
:100320006ECE89BF26284738DBC9434F770361AFBC
:10033000749B111AA9C8674D0F10CEC32E00D7EEBB
:100340009D6BBB32CA0F0B2E8712E042071713A911
:100350004FF8472F3FA8FFE3049AB397527B2A1028
:100360004F87AA4A7EC6A41754BF10DFE4DC452895
:1003700062D5B6B8707F2509B8B31E28C327AB9ADB
:100380006064B466C23758470DC3B847701392B85B
:100390008E4E7920D50B43317832FF7BEC0066C856
:1003A00000227CDC8338331463892DD0F33C407603
:1003B000DDCDCA5A6C1D2FF1F48E4C090C1304C309
:1003C000D60EE0A8800FE5E8222FD271A46FD50EDB
:1003D00021424753A9C00E4C2A36A3B1BEAE3A4FB4
:1003E0004F0E87E11288C47B26E147C94FB53A3CDE
:1003F0000938DFBFDCD460EA3B9902745A5CE92D0E
:100400001028D2C4A4B2A36BAC2F09B14716813512
:100410005909B43F577E58F0DEDF61F13310BD302B
:1004200039FC076F59CBFDB39A2133B7B4DEBAC399
:100430007F76924920078980F9FEA53D1249BEB218
:1004400065C65407602D2B74D8CB7DAA920F353D1D
:10045000C293B6D0D515B451F7FC2D03AE9D97E2EB
:10046000E7F763AA448F4DDA2CF5057DD4F28800B6
:10047000000000000A7C51F69FD918A40001F9037E
:10048000A70B00008128816AB1C467FB020000004D
:100490000004595A01000100230400000200020078
:1004A0001F040000030001002404000004000200F7
:1004B0000904CE2105000100250400000600020009
:1004C0000B040000070002002104000008000100E6
:1004D00026040000090002000D04A9210A00020000
:1004E0000F04A9210B0002001104A9210C00020035
:1004F0001304A9210D0002001504A9210E00020019
:100500001704A9210F0002001904A92110000200FC
:100510001B04A921110002001D04A92112000200E0
:100520002704000013000200290400001C037600C9
:10053000690061006C003A00660036003400630018
:100540003200620033006300000014034D006900B4
:100550006E00740061006B00610035003000000027
:100560002203530063006100740074006500720090
:100570006500640044007200690066007400650054
:10058000720000000403090409025B00030100A0DB
:10059000FA09040000010301010009211101000111
:1005A000224000070581030800010904010002033D
:1005B0000000000921110100012222000705820329
:1005C00020000107050303200001090402000103C4
:1005D000000000092111010001224F0007058403DA
:1005E00020000112010002000000081133122B014B
:1005F00000010203010660FF0961A1010962150003
:1006000026FF009520750881020963150026FF006A
:10061000952075089102C005010902A10185020912
:1006200001A1000509190129051500250195057588
:100630000181029501750381010501093009311518
:1006400081257F95027508810609381581257F95DA
:100650000175088106050C0A38021581257F950170
:1006600075088106C0C005010906A101050719E04A
:1006700029E7150025019508750181029501750886
:1006800081010507190029FF150026FF0095067551
:100690000881000508190129059505750191029544
:1006A0000175039101C011241FBECFEFD4E0DEBF5E
:1006B000CDBF04B603FE18C080913C0490913D0468
:1006C000A0913E04B0913F048730904BA740B04BBF
:1006D00059F410923C0410923D0410923E04109282
:1006E0003F04E0E0F8E3099511E0A0E0B1E0EAE2C0
:1006F000FEE602C005900D92AE34B107D9F724E0B2
:10070000AEE4B1E001C01D92AC33B207E1F70E9444
:10071000B5150C94B1360C9400009C019A95811586
:100720009F4118F5F901EE27F270832F8170B9010E
:1007300066277470A9014427587034FF0CC0829555
:10074000807FEF2B09F08062672B09F08064452BD6
:1007500069F080680895EF2B09F08260672B09F03B
:100760008460452B19F08860089580E00895CF9348
:10077000DF93EB010E948D03FE01DF91CF9109947D
:10078000CF93DF93EC01805E9109089720F06FE032
:1007900077E0209711F461E077E0CE010E94B70383
:1007A0008C2FDF91CF910C947C06CF93DF93EC01DB
:1007B0000E94AF06CE01805E9109089720F066E1A5
:1007C00077E0209711F468E077E0CE01DF91CF91D8
:1007D0000C94B70381E0089581E008950C94EC0334
:1007E00008950C94F0031F93CF93DF9300D000D0B3
:1007F0000F92CDB7DEB749835A836B833091510195
:1008000089819A8131111DC06623B9F02223A9F094
:100810000E94140B182F682F89819A810E94B00AB8
:1008200069817A81812F0F900F900F900F900F9018
:10083000DF91CF911F910C9498200E94E40A182F09
:10084000EFCF0E94140B69817A81EDCFFC01262F36
:1008500086819781009739F440815181628173814B
:1008600084810C94F3030895CF93DF93D82FC92F7D
:1008700061E00E9426046D2F7C2FDF91CF910C94B4
:10088000A828CF93DF93D82FC92F60E00E942604B9
:100890006D2F7C2FDF91CF910C94F103E1E0F0E01C
:1008A000DF0102C0AA0FBB1F6A95E2F7BD01DF019D
:1008B00002C0AA0FBB1F4A95E2F76A2B01C0EE0FD8
:1008C0002A95EAF7962F9823961302C08E2B089547
:1008D000E0958E230895242F462F682F809169017B
:1008E0000E944E040C946D0A0C943B140C943E141C
:1008F00008950E9429070E9478042FEF84E39CE06A
:10090000215080409040E1F700C000000C94CA2EB6
:100910000F931F93CF93DF93EC018B010E94F52B74
:10092000B801CE010E94C518882309F44FC0B80150
:10093000CE010E943B1E882309F448C0B801CE01B5
:100940000E94EE03882309F441C0B801CE010E9441
:100950003C2C8823D9F1B801CE010E94A32588231D
:10096000A9F1B801CE010E94432B882379F1B80187
:10097000CE010E943C23882349F1B801CE010E9498
:10098000742A882319F1F8018281882361F0CA351D
:10099000FDE5DF0721F170F4C115ECE5DE07A1F0FC
:1009A000CE3DDC45C9F0C801DF91CF911F910F9179
:1009B0000C94EA03CB358DE5D807A1F0CC35DD45A5
:1009C00091F70E94A310EFCF0E94790480E0DF919D
:1009D000CF911F910F9108950E945C11F7CF0E9453
:1009E000AC10E1CF0E94AF10DECFCF93DF93D82FB2
:1009F000C92F61E00E9426046D2F7C2FDF91CF91DB
:100A00000C9488040E94F02D0C94E7050E94EA05DE
:100A10000C94F42DDF92EF92FF920F931F93CF93DC
:100A2000DF93E82FF0E0EC53FE4FD490282F26956B
:100A30002695269530E0F901EC59FD4F0491877019
:100A400010E0082E02C0159507950A94E2F7017090
:100A50001127F901EC5AFD4FE490F12C082E02C049
:100A6000F594E7940A94E2F791E0E922FF24F90172
:100A7000EC5BFD4FC491D0E002C0D595C7958A9537
:100A8000E2F7C170DD270115110519F081EE0E9412
:100A90007C06E114F10419F086EE0E947C068D2D8F
:100AA0000E94F506EF2819F086EE0E94AF06012B92
:100AB00019F081EE0E94AF06CD2B51F08CE2DF9150
:100AC000CF911F910F91FF90EF90DF900C94F5065E
:100AD000DF91CF911F910F91FF90EF90DF900895DC
:100AE000EF92FF921F93CF93DF93EC01162F888133
:100AF000882309F453C0813009F04DC089818130C9
:100B0000A1F47E0182E0E80EF11C8A810E94F506C4
:100B1000E7012196812F882351F3EFE9FFE0319718
:100B2000F1F700C000008150F6CF823041F47E0121
:100B3000E2E0EE0EF11C8A810E947C06E9CF833050
:100B400041F47E01F2E0EF0EF11C8A810E94AF06B3
:100B5000DFCF843011F02196DCCF2A81229680E00D
:100B600090E0FE0131962053330B2A30310550F0CE
:100B7000009779F2EFE9FFE03197F1F700C000004C
:100B80000197F6CF6AE070E00E94EB35820F931F69
:100B90002981EF01E6CF0E940A05BBCFDF91CF91FB
:100BA0001F91FF90EF90089560E00C9470050895F8
:100BB0000C94D70581E008950C94DA050895CF933D
:100BC000C82F0E94D8058C2FCF910C94DC0580E0B3
:100BD0000C94DF050E942E2D0C94DF050E942E2D13
:100BE00090915001981721F0809350010C94DF05EB
:100BF00008959C012115310509F408958FE99FE0BE
:100C00000197F1F700C0000021503109F3CF0F9395
:100C10001F93CF93DF93CDB7DEB72D970FB6F89420
:100C2000DEBF0FBECDBF49875A87262F6B877C87D3
:100C30008D878C859D85892B29F0852F84238F3F77
:100C400009F04BC021110E94B40F1E821F8218862A
:100C500025E0FE013996CE010196DC0101900D924E
:100C60002A95E1F72091A6038C0122FD12C0809104
:100C70000B0490910C04892B61F00E946E0F882365
:100C800019F082E00E9472100E94490F81110E94A7
:100C9000EB0F89819A812C813D81232BA9F4298135
:100CA0003A814B815C816D817E818F8198850E9424
:100CB0008E0E2D960FB6F894DEBF0FBECDBFDF911E
:100CC000CF911F910F91089589238F3F41F3C80160
:100CD0000E9434048111E3CFECCF809152019091B6
:100CE000530101969093530180935201ABCFFC01C5
:100CF000808191810C94410BCF93C82F882369F197
:100D00008CEF8C0F813AA0F46C2F809100019091B0
:100D100001010E94922D882329F08C2F0E94390F07
:100D20000E94F90F8C2F0E94320FCF910C94F90F73
:100D300080E28C0F883048F4C77081E001C0880FD2
:100D4000CA95EAF70E94920FF0CFC03F30F08C2F87
:100D50000E944B16CF910C941217CF9108958823BF
:100D600061F19CEF980F913A20F40E94390F0C9496
:100D7000F90F90E2980F983050F4877091E001C01D
:100D8000990F8A95EAF7892F0E94980FF0CF9BE57B
:100D9000980F933020F490E080E00C94542D98E567
:100DA000980F973120F490E080E00C946A2D803FFA
:100DB00020F00E949D160C94121708951F93CF9354
:100DC000DF93182FEB010E947C06209731F4812FCE
:100DD000DF91CF911F910C94AF068FE99FE00197AF
:100DE000F1F700C000002197F0CF609129047091C5
:100DF0002A04893321F060912704709128040C940F
:100E0000DE06882321F00E94920F0C94F90F0895BA
:100E1000882321F00E94980F0C94F90F08958823DD
:100E200021F00E94A60F0C94F90F0895882321F059
:100E30000E94AC0F0C94F90F08950E94B40F0E9409
:100E4000F90F0E9447180C9412170E94400F0C943F
:100E50001D070E94A00F0C942507282F92959F70C4
:100E6000963091F060F4925F9F70923030F481E0A0
:100E7000203F81F030F4283E30F080E008959A5F02
:100E8000F3CF243FD1F7089581E0283EE0F3213FDE
:100E9000A1F7F9CF0895FC0186819781009721F091
:100EA0000E9443120C942D07808191810E94410B76
:100EB000F9CFBF92CF92DF92EF92FF920F931F93E1
:100EC000CF93DF937C01C62F172FFC01D2800581C1
:100ED00002950F700E94880FC82E8823C1F0CD2C78
:100EE000DD20A9F0812F807F803429F080E28C0FF3
:100EF000883008F447C08091A60382FD43C082E099
:100F00000E9472100E94880F91E0C82EC926B12E4F
:100F1000B2948FE0B822F8E0BF1609F426C1FB15A1
:100F200008F467C023E02B1578F1812F807FD12F43
:100F3000DF7031E03B1508F06FC0803211F0D295C0
:100F4000D07FCC2309F497C0C13009F4E7C0DD207D
:100F500009F4EEC0002309F4C3C020E0F70140818A
:100F600051816281738184810E94F303B7010E94E1
:100F7000EF22811164C0F701858180FF60C08F700E
:100F80008583AEC0C12CC3CF85E0B81609F4E2C09A
:100F90002B2D2850330B2430310520F40E942E2DA8
:100FA0000E94DF058C2F912F0E942D078111DFC138
:100FB0001092530110925201CC2009F4F9C10E9401
:100FC0006A0F80FDF5C1F70112820E94640F0E9432
:100FD0007E0AC7010E94000A0E94640FDF91CF9130
:100FE0001F910F91FF90EF90DF90CF90BF900C94E6
:100FF000890A99E0B91609F424C186E08B0D8F7037
:10100000823030F6C23F09F02CC1812F8F71D11090
:1010100025C10E947E0ABCCF882311F0D295D07FD3
:10102000DD2099F0DD2359F080E28C0F883010F03C
:10103000C11107C08D2F0E94920F0E94F90F8C2FB3
:1010400028C08D2F0E94A60FF8CF8C2F0E94AF06CC
:10105000DD2309F49DCF80E28C0F883010F0C111A0
:1010600004C08D2F0E94980F03C08D2F0E94AC0FDB
:101070000E94F90F8DCF8091A60382FF14C0DD205E
:1010800059F0DD2329F08D2F0E94920F0E94F90F55
:1010900080E00E947C067CCF80E00E94AF06DD23CA
:1010A00009F476CFDECFDD20E9F0011106C00E9401
:1010B000B70F8D2B0E9401076BCF013031F40E94D6
:1010C000B70F8D2B0E94D30F63CF80912504823000
:1010D00070F38013ECCF0E94EB0F8D2F0E94BD0F99
:1010E0008D2FE8CF011106C00E94EB0F8D2F0E94BB
:1010F00008074ECF80912504013059F4823008F45E
:1011000047CF0E948F0F8D2309F442CF0E94C60F54
:10111000EBCF823048F30813E7CF3ACFDD2021F040
:10112000063008F035CFDCCF053008F031CFDECF08
:101130000023E1F28091290490912A04C93321F01F
:1011400080912704909128040E94F9058C2F0E9419
:10115000AF061ECF8C2FDD2029F00E944B160E9477
:10116000121716CF0E949D16FACF812F837091F52A
:10117000D1100ECF9C2F929596959770990F990F3D
:101180004C2F4F70092E01C0440F0A94EAF78C2FA0
:101190008071C4FF08C02FE030E001C0220F9A9593
:1011A000EAF7822F8095912F969596959370842BD0
:1011B000923051F0933059F0913019F00E945F0A4B
:1011C000E7CE0E945A0AE4CE0E94640AE1CE0E9451
:1011D000580ADECEDD2049F110FFDACE9C2F929521
:1011E00096959770990F990F4C2F4F70092E01C04B
:1011F000440F0A94EAF78C2F8071C4FF08C02FE0D7
:1012000030E001C0220F9A95EAF7822F8095912F46
:10121000969596959370842B923069F0933071F087
:10122000913031F00E94A50AB3CE11FFB1CED6CFD6
:101230000E94A00AADCE0E94AA0AAACE0E946D0A00
:10124000A7CED12FDF70DD2029F08D2F0E947E0ADE
:101250008C2F30CF8C2F0E9408078D2F0E94890A77
:1012600097CEC33F60F4C03FB9F0C13F81F0DD20AD
:1012700009F478C00111E3CE812F8F71CACEC33F2C
:10128000C9F0C43FA1F78091A60382FF1DC0812F42
:101290008F71DD2019F3BDCEDD2041F0053008F05F
:1012A00077CE812F8F710E94950A72CE063008F09A
:1012B0006FCEF7CFDD2029F0812F8F710E94760A43
:1012C00067CE0E94730A64CE809125048230A0F11B
:1012D000DD20F1F00E94460F0E94980F0E946A0FD5
:1012E000843041F40E946910812F8F710E94890A15
:1012F000C12C4ECE809125040817D0F7D12FDF7175
:101300008D2F0E947E0A63E08D2F0E944C10F0CF3B
:101310000E94460F0E94920F80912504081740F00A
:101320000E9469100E94C60F64E0812F8F71EDCF7B
:1013300081E00E947210DCCFDD2051F0D12FDF71EF
:101340008D2F0E947E0A63E08D2F0E944C1020CECC
:1013500081E00E947210023008F41ACE82E00E94EE
:10136000721016CE0111E6CE812F8F7177CFDD205E
:1013700019F001111DCE20CE01111ACE20E0F70187
:10138000408151816281738184810E94F303B7019E
:101390000E94FA22882309F40BCE80915201909189
:1013A0005301029709F004CE8C2F0E94F50600CE5F
:1013B000DF91CF911F910F91FF90EF90DF90CF9031
:1013C000BF9008950F931F93CF93DF93EC018E810D
:1013D0009F81009779F00E9443128C010E94AF0A0E
:1013E0000E94570AB801CE01DF91CF911F910F9152
:1013F0000C945907688179818A810E944D0BEDCF49
:10140000CF93DF93EC01988189812B813C81232B41
:1014100019F089238F3F59F4DF91CF910895CE01C0
:101420000E94E209CE01DF91CF910C944104CE01DC
:101430000E94F5048111F3CF0E94880F882361F385
:101440008A81882349F38091A60382FDE5CF82E05B
:10145000DF91CF910C947210CF93DF9300D000D026
:101460000F92CDB7DEB70F900F900F900F900F90A7
:10147000DF91CF910895CF93DF93CDB7DEB7289753
:101480000FB6F894DEBF0FBECDBF28960FB6F89406
:10149000DEBF0FBECDBFDF91CF91089508950C94AC
:1014A0004E0A0E944F0A80936A010C941D0708950A
:1014B0000C94510A90916A01892B0C94510A9091D5
:1014C0006A0189230C94510A90916A0189270C942E
:1014D000510A0C944E0A0C94690A0E946B0A80937C
:1014E00069010C941D0780E00C946D0A91E001C025
:1014F000990F8A95EAF7892F0C946D0A21E030E064
:1015000001C0220F8A95EAF780916901822B0C9421
:101510006D0A21E030E001C0220F8A95EAF720959C
:101520008091690182230C946D0A21E030E001C0B2
:10153000220F8A95EAF78091690182270C946D0A3F
:1015400090916901892B0C946D0A9091690189230E
:101550000C946D0A9091690189270C946D0A089585
:10156000382F892F262F9E3F71F16EE00E94E235C1
:10157000830F982F977041E001C0440F9A95EAF7C6
:1015800086958695869590E063E070E00E94EB3545
:10159000FC01EC5AFE4F90E080E0622F70E0519128
:1015A000DF0111979B01082E02C0369527950A94FA
:1015B000E2F7217021952527242325272C930196D6
:1015C0008330910561F70895282F892F9E3F51F1AF
:1015D0006EE00E94E235820FA82FA770869586954F
:1015E000869590E063E070E00E94EB35FC01EC5AD8
:1015F000FE4F50E040E080E0219130E00A2E02C032
:10160000369527950A94E2F721703327042E01C0FE
:10161000220F0A94EAF7822B4F5F5F4F4330510548
:1016200059F7089580E00895DF92EF92FF920F93AB
:101630001F93CF93DF937C010091690180916A0130
:10164000082BC7E0D0E010E0DC2EC8010C2E02C051
:10165000959587950A94E2F780FD0CC02197A0F735
:10166000D12C8D2DDF91CF911F910F91FF90EF9095
:10167000DF900895B7018C2F0E942713019771F313
:10168000F0CFCF93DF93D82FC92F0E94140B6D2F6B
:101690007C2FDF91CF910C9427131F93CF93DF936F
:1016A000162FD72F90915101992339F0862F972F1C
:1016B000DF91CF911F910C94410B882391F0862FDD
:1016C000972F0E94140BC82F682F812F9D2F0E94E7
:1016D000B00A612F7D2F8C2FDF91CF911F910C9439
:1016E0002713862F972F0E94E40AC82FF2CFCF939B
:1016F000DF93C0916B0180916C018C1303C0DF916B
:10170000CF910895D0E0FE0183E0EE0FFF1F8A9590
:10171000E1F7E359FE4F2081318142815381648199
:101720007581868197810E943B0A2196C770E3CF1D
:101730002091AD013091AE014091AF015091B001C7
:101740006091B1017091B2018091B3019091B401A7
:101750000C943B0AEF92FF920F931F93CF93DF936A
:101760008091B201807F31F48091AF01C0916B0113
:10177000811119C0DF91CF911F910F91FF90EF90D0
:1017800008958091AD019091AE012091B00130910A
:10179000B101D0E02115310521F0492F48234F3FF9
:1017A00039F42196C77080916C018C13EACFE2CF97
:1017B0008E0143E0000F111F4A95E1F7F801E3594C
:1017C000FE4F41819413EDCF90819813EACF82812F
:1017D0008111E7CFE380F480E21AF30A60E08DEA3A
:1017E00091E00E9426046DEA71E00E94E622E8166C
:1017F000F906B8F68091B2018F7080618093B201D2
:10180000F801EE58FE4F80818F70806180838DEAF1
:1018100091E00E94000ADF91CF911F910F91FF90FC
:10182000EF900C94770B4F925F926F927F928F9212
:101830009F92AF92BF92CF92DF92EF92FF920F935F
:101840001F93CF93DF93CDB7DEB72D970FB6F894E4
:10185000DEBF0FBECDBF8C0185E0F801DE01199619
:1018600001900D928A95E1F7D8017C9011966C90C9
:1018700011971296EC9012971396CD90DC9060E041
:101880008DEA91E00E942604582E492E5DEAA52E8D
:1018900051E0B52E9091AD018091AE012091B00143
:1018A0003091B1012115310521F089238F3F09F0D5
:1018B000D8C1EE2009F4A7C0C8010E944B07F82E3A
:1018C000882309F4A0C088E0F801ADEAB1E00190F6
:1018D0000D928A95E1F78DEA91E00E9477060E94C9
:1018E000AA0B8BC16DEA71E0852D942D0E94EB222D
:1018F0008111EDC1CD2829F0872D86218F3F09F078
:101900000FC180E0E82FE170DE2E80FF3DC08091A6
:101910006B0120916C01821316C089859A850E9403
:10192000410B292F22952F70903210F1225F2F70DA
:10193000223028F59F7001F1D80115969C91907F77
:10194000D9F4D12C1FC090E0FC0133E0EE0FFF1F53
:101950003A95E1F7E359FE4F3181361106C03081E7
:10196000371103C032813E110FC001968770D3CF6B
:101970009F7011F0882329F3805E883010F3C8012E
:101980000E94000AFD2C00C1EE2009F4FDC08091E8
:10199000B20181608093B201F12CF6C0452B29F091
:1019A000382F32233F3F09F007C1C8010E944B077F
:1019B000882349F1EE2039F18091B2018032A0F004
:1019C0002091AD013091AE013A8329831B82DD82E3
:1019D000CC828E838091B3019091B40198878F83DC
:1019E000CE0101960E94000A88E0F801ADEAB1E05C
:1019F00001900D928A95E1F70E94AA0B0E94980B24
:101A0000FF24F394C1C0C8010E94000AF9CF892FB6
:101A1000807F99F449855A856B857C858D850E94E8
:101A20002C0A8DEA91E00E94000A88E0D5011D92FF
:101A30008A95E9F70E94980BAFCF8091AD01209174
:101A4000AE014091B0015091B101452B09F4ADCFE9
:101A5000382F32233F3F09F4A8CFF80131813213E8
:101A6000A4CFF80120812813A0CF4091B301509159
:101A7000B401268137814217530709F096CFE11050
:101A800094CF9583C8010E94000AEDEAF1E088E056
:101A9000DF011D928A95E9F777C060E08DEA91E059
:101AA0000E9426046DEA71E00E94E62288169906DB
:101AB00050F5FE2CEE2009F4A6CF8091AD01909157
:101AC000AE012091B0013091B101232B29F0282FD4
:101AD00029232F3F09F094C0C8010E944B078111B0
:101AE00083CF8091B20181608093B201C8010E94CE
:101AF000000A4AC088E0F801ADEAB1E001900D9219
:101B00008A95E1F741C049855A856B857C858D852D
:101B10000E942C0A88E0F50111928A95E9F76DC0C0
:101B200081E08E25EFCE8DEA91E00E94000A88E0E8
:101B3000EDEAF1E0DF017BCF81E08E25D1C0F80135
:101B400091819213BAC0F80190819813B6C0209188
:101B5000B3013091B401868197812817390709F0C4
:101B6000ACC0E110AAC08091B2018F7080618093F7
:101B7000B2010E94980B8DEA91E00E94000A8091C8
:101B8000B201D80115968C938F2D2D960FB6F8942F
:101B9000DEBF0FBECDBFDF91CF911F910F91FF90A0
:101BA000EF90DF90CF90BF90AF909F908F907F90FD
:101BB0006F905F904F900895D80111963C91321329
:101BC000F4CEF80120812813F0CE4091B30150915A
:101BD000B401268137814217530709F0E6CEE110A0
:101BE000E4CE9583C8010E94000A88E0F801ADEABE
:101BF000B1E001900D928A95E1F70E94980BC4CF55
:101C0000D80111962C91291367CFF8019081981370
:101C100063CF2091B3013091B40186819781281759
:101C2000390709F059CF6DEA71E0852D942D0E9496
:101C3000F42281115FCF8091B20180FD5BCF982F9C
:101C4000907F09F457CFD80115968C931597903F44
:101C500049F2982F907F905F8F70892B15968C9307
:101C6000C1CFF090AF014601821A930AFF2009F418
:101C700014CF60E08DEA91E00E9426046DEA71E0E5
:101C80000E94E6229C019091B2018216930608F010
:101C9000BECE8091AD012091AE014091B001509136
:101CA000B101392F307F09F079CEFE2C452B29F078
:101CB000982F92239F3F09F042CF6DEA71E0852D66
:101CC000942D0E94E622843F914008F40BCEC1146B
:101CD000D10429F0872D86218F3F09F02DCF80E098
:101CE00080FF08CE80916B0120916C01821709F46E
:101CF00001CE90E0FC0143E0EE0FFF1F4A95E1F7B3
:101D0000E359FE4F3181361106C03081371103C0CF
:101D100032813E1108CF01968770E8CFCF93DF93D1
:101D2000CDB7DEB760970FB6F894DEBF0FBECDBF5C
:101D300029873A874B875C876D877E878F87988B4B
:101D4000CE0109960E94130C8823D1F08C859D85C5
:101D5000892B39F03A852985832F82238F3F09F01B
:101D600078C080916B0190916C01891348C0609696
:101D70000FB6F894DEBF0FBECDBFDF91CF910895AF
:101D800088E0FE013996DE01119601900D928A9548
:101D9000E1F789859A85A0916C0120916B014C85B2
:101DA0005D85452BF1F289238F3FD9F2B0E0CD015B
:101DB0000196877099272817190671F40E94290740
:101DC00010926C0110926B0188E0EDEAF1E0DF0106
:101DD0001D928A95E9F7C5CF33E0AA0FBB1F3A954C
:101DE000E1F7A359BE4F98E0FE01319601900D92A4
:101DF0009A95E1F780936C010E94770BB2CF90E047
:101E000023E0880F991F2A95E1F783599E4F0E947E
:101E1000130C882309F4ABCFE0916B01F0E083E071
:101E2000EE0FFF1F8A95E1F7E359FE4F20813181C4
:101E30004281538164817581868197810E943B0A2A
:101E400080916B0190E001968770992780936B01D8
:101E500088CF4B855C856D857E858F8598890E94AE
:101E60003B0A7FCF682F80910001909101010C9473
:101E7000CC2D682F80910001909101010C94CE2D02
:101E800080910001909101010C94D02D8091C201AC
:101E9000089580910B0490910C04892B91F00E947D
:101EA0006B2E2091C0013091C101AC01421B530B3C
:101EB0009A0181E040910B0450910C0424173507DE
:101EC00008F480E0817008958091BF018595859523
:101ED000859508958091BF01877008950E946B2EAB
:101EE0002091BD013091BE01821B930B20910B0408
:101EF00030910C048217930748F08091BF0182FB58
:101F0000882780F991E089278170089580E0FCCFCF
:101F10009091BF01977081E009F480E0089580916D
:101F2000CD0108959091CD01982B9093CD01089506
:101F3000982F90958091CD0189238093CD010895AC
:101F40001092CD0108958091CC0108959091CC011B
:101F5000982B9093CC010895982F90958091CC0167
:101F600089238093CC0108951092CC01089580912B
:101F7000C301089508950C94BA0F9091C201981767
:101F800021F08093C2010C94BB0F08958091C2018F
:101F9000882329F01092C20180E00C94BB0F0895B1
:101FA00008950C94D00FCF93C82F8091A60382FD83
:101FB00010C08091C3018C1761F00E946B2E90932A
:101FC000C1018093C001C093C3018C2FCF910C94A9
:101FD000D10FCF9108958091C301882349F01092C9
:101FE000C3011092C1011092C00180E00C94D10F86
:101FF0000895CF93DF93E0910001F091010180916A
:10200000CD018083E0910001F091010180819091E8
:10201000CC01892B80838091C3018823E9F08091D2
:102020000B0490910C04892B29F00E94490F811117
:102030000E94EB0FE0910001F091010180819091ED
:10204000C301892B808380910001909101010E943E
:10205000802D81110E94EB0FC0910001D0910101F0
:1020600048E050E065EB71E0CE010E943A36892BE2
:1020700069F088E0FE01A5EBB1E001900D928A9530
:10208000E1F7CE01DF91CF910C943A2DDF91CF9102
:10209000089508950C944910962F2091A60322FDCF
:1020A00016C0682F660F660F660F692B6093BF011D
:1020B0000E947E0A0E946B2E9093BE018093BD0108
:1020C0008091BF018595859585950C944A100C9457
:1020D0007E0A1092BF011092BE011092BD0180E0F5
:1020E0000C944A109091BF01809589238093BF0181
:1020F000282F277091F4282F082E000C330B9217ED
:10210000130659F09091A60392FD07C08595859519
:1021100085950E94890A0C94691008959091A603F0
:1021200092FB222720F9281769F080FB92F99093FF
:10213000A6038091A5039091A6030E94D91082E086
:102140000C94721008958091A60382FB882780F971
:1021500091E089270C948E1081E00C948E1080E021
:102160000C948E106FEF7FEF90E080E00C9493362C
:1021700090E080E00E946F36893E9E4F11F40C94EF
:10218000551880E0089582E090E00C94673683E073
:1021900090E00C946736CF9384E090E00E9467361D
:1021A000C82F82E290E00E946736982F8C2FCF9143
:1021B0000895CF93682FC92F84E090E00E94753670
:1021C0006C2F82E290E0CF910C947536AB01BC018C
:1021D0008FE090E00C948736AB01BC0183E190E086
:1021E0000C94873660E070E0CB010C94EC1060E05A
:1021F00070E0CB010E94E6100C94F21069EE7EEFC5
:1022000090E080E00E94933660E082E090E00E94DF
:10221000753660E083E090E00E94753610926A01A6
:1022200060E084E090E00E94753660E082E290E039
:102230000E94753660E085E090E00E94753660E0AF
:1022400086E090E00E9475366FEF87E090E00E9494
:10225000753640E050E0BA0188E090E00E94873691
:1022600060E08DE090E00E94753640E050E0BA01F9
:1022700088E190E00E94873660E087E190E00E946C
:10228000753640E050E0BA018CE190E00E9487365C
:1022900070E060E080E290E00E94933640E050E021
:1022A000BA0188E190E00E94873680E00E946E18B3
:1022B0000E94A9180C94F7100C94FE10682F8EE061
:1022C00090E00C9475360E94772E6093DA0170933B
:1022D000DB018093DC019093DD016093D601709364
:1022E000D7018093D8019093D90108950895089556
:1022F0000C94771108950C947A1186E094E10E9471
:10230000242D0E947F1C0E94F0210E9476110C94C3
:10231000781181E008950C948911089508950E9420
:102320008D110C948E110E9420140C94DE050E94D5
:10233000622E0E94B8180E940C150E9493110C94F2
:102340007B117F928F929F92AF92BF92CF92DF923A
:10235000EF92FF920F931F93CF93DF9300D000D0A3
:102360000F92CDB7DEB70E942115B82E81110E94C1
:1023700063115EEC852E51E0952E10E000E0702E8A
:10238000802F0E9456147C01F401C190D1904F011E
:10239000C816D90609F452C08091DE0181FD0E9461
:1023A0005F14C6018E259F25A12CCC24C394D12C6B
:1023B0009C012C213D21232BD9F10E948B118823D4
:1023C000A9F0A9827A82EC20FD2081E0EF2809F4AF
:1023D00080E08B830E946B2E8160782F9D838C839D
:1023E00049815A816B81892F0E940706000F111FB6
:1023F000F801E253FE4F808191818C259D259183C8
:10240000808381E0B11001C080E00F900F900F90A9
:102410000F900F90DF91CF911F910F91FF90EF9050
:10242000DF90CF90BF90AF909F908F907F90089556
:10243000A394CC0CDD1CFEE0AF12BACF0F5F1F4F90
:102440000430110509F09BCF8FEF89838A831B82AB
:102450000E946B2E8160782F9D838C8349815A81E5
:102460006B81892F0E940706CCCF0E94A12C0E946D
:1024700064280C946A250E94A1110E9435120E94C2
:102480002C170C94EE05CF93DF930E942B13EC01D5
:102490008115924508F054C0C11581E5D80708F0B0
:1024A000A7C0CF3FD10509F0E8F4C03FD10508F03F
:1024B0009AC0C53AD10570F4C430D10538F481E032
:1024C000219709F080E0C82F90E0D92FCE01DF914D
:1024D000CF910895CE01805E91090897B8F3D0E0BE
:1024E000C0E0F4CFC11520E5D20758F4C11580E44F
:1024F000D80708F07AC0CE019A9581159F4130F334
:10250000EECF9E01A4E036952795AA95E1F72370BA
:102510008C2F86958695837090E0B5E0880F991F83
:10252000BA95E1F7922BC37021E030E002C0220F90
:10253000331FCA95E2F7822B932BEC01DC68C6CFE0
:10254000C11586E5D80740F5C11595E5D90708F00E
:1025500065C0C11524E5D207D0F48C2F86958695E9
:102560009E0123703327C115D34508F046C0C1E052
:10257000D0E002C0CC0FDD1F2A95E2F790E0F5E035
:10258000880F991FFA95E1F7C82BD92BD7CFDC2FED
:10259000CC27C46FD06A9ACFC1152AE5D20788F438
:1025A000C11589E5D80708F044C0CE0198558F3F82
:1025B000910511F008F093CFDC2FCC27C06FD06AC3
:1025C00085CFCE0190568115904208F088CF8D2F8F
:1025D0008F710E94C31390E0982F882788279F71DE
:1025E0008C2BEC0124C0D06571CFDF70D06A6ECF28
:1025F000DC2FCC27C16FD06A69CFC1E0D0E002C028
:10260000CC0FDD1F2A95E2F790E065E0880F991F57
:102610006A95E1F7C82BD92BDA6858CF8C2F0E9426
:10262000C313C82FD0E0DC2FCC27CC27DF71D062BA
:102630004DCF8C2F8F700E94C31334E0D695C79571
:102640003A95E1F7CF709C2FEC01D0693FCF0E9403
:1026500098200C944312803E910599F1C8F481337F
:10266000910509F476C048F48932910509F46AC0ED
:102670008A32910509F474C0089589339105D1F027
:1026800082389105B9F08533910509F454C0089555
:10269000843E910599F138F4823E9105F9F0833E2C
:1026A000910509F10895863E910599F1873E9105BE
:1026B000B9F108952091A5032370A1F080EE90E078
:1026C00008952091A50320FD52C03091A60330FF4C
:1026D00009C024FF4FC090E080E004C02091A50312
:1026E00022FDF7CF08952091A50322FD46C0309129
:1026F000A60330FDE3CF24FFF5CFEDCF2091A60355
:1027000021FFF0CF8091A50384FDE5CF87EE90E017
:1027100008952091A50323FFE5CF24FDDCCFF6CF5C
:102720002091A50323FD2CC03091A60331FFE3CFF8
:1027300084EE90E008952091A50325FFD3CF89E290
:1027400090E008952091A50325FFCCCF85E390E08C
:1027500008952091A50326FFC5CF8AE290E0089551
:102760002091A50326FFBECF81E390E0089589E381
:1027700090E0089583EE90E0089582EE90E0089551
:1027800086EE90E008959091A50392FF06C0282F51
:1027900028712830F9F4877F846093FF06C0282FC2
:1027A00028712831F1F4877E84612091A60320FFEF
:1027B00006C0382F38713830D9F4877F816021FF07
:1027C00006C0282F28712831D1F4877E816194FDBD
:1027D000877E0895282F24712430F9F68B7F886036
:1027E000DCCF282F2471243101F78B7E8861DDCF67
:1027F000382F3171313019F78E7F8860E0CF282F64
:102800002171213121F78E7E8861E1CF80E008952A
:102810000C94B2100E9421158FE39CE90197F1F707
:1028200000C000000E94211580E00E94561480FF25
:1028300004C00E9408140C94CA2E08950C940A1423
:102840000E94B810811102C00E945C110E94C31046
:102850008093DE010E94CB109093A6038093A50382
:102860000E941E140E94C7100E94580A809169019C
:102870000C946B0A08950C943A1408950C943D142A
:10288000E82FF0E0EE0FFF1FE155FC4F21E030E0B4
:1028900002C0220F331F6A95E2F7808191812823BD
:1028A000392381E0232B09F480E00895E82FF0E03C
:1028B000EE0FFF1FE155FC4F80819181089508952F
:1028C00080EA8A95F1F7089500C008950C94601489
:1028D000F894E82FE295EF70F0E041A18F7021E0CD
:1028E00030E0B90102C0660F771F8A95E2F7CB018D
:1028F000962F9095942391A392A1892B82A37894EB
:102900000895CF93DF9382E60E94681480E90E94C5
:10291000681481E90E94681482E90E946814C3E285
:10292000D1E089918F3F11F00E94681481E0C1339A
:10293000D807B9F7DF91CF910895AF92BF92DF9298
:10294000EF92FF920F931F93CF93DF93EC01D62E5C
:10295000062F10E0C8018F5C9E4F7C01FC01808136
:102960008F3F09F44FC0F894E82FE295EF70F0E044
:1029700091A18F7021E030E001C0220F8A95EAF723
:10298000892F822B81A382A12095282322A37894CA
:102990000E946414E3E2F1E061E371E041E050E0A1
:1029A000B12CA12C21912F3F81F0A22FA295AF70C5
:1029B000A05EB0E08C9190E02F7002C09595879555
:1029C0002A95E2F79A0180FF02C020E030E0A22AB7
:1029D000B32A440F551F6E177F0721F7F701808137
:1029E0008F3F11F00E94681461E0A114B10409F452
:1029F00060E08D2D0E946614000F111FC00FD11FC3
:102A0000B982A882DF91CF911F910F91FF90EF9033
:102A1000DF90BF90AF9008950E94811488E0EFEAA4
:102A2000F3E0DF01982F1D929A95E9F7E7EAF3E0CA
:102A3000DF011D928A95E9F784E00E946F150C94DE
:102A40007404FF920F931F93CF93DF93CDB7DEB73C
:102A500028970FB6F894DEBF0FBECDBFFE013196AA
:102A600088E0DF011D928A95E9F710E0FE2E0F2F16
:102A7000612F8F2D902F0E949D141F5F1430C1F77E
:102A800048E050E06F2D702F87EA93E00E943A36BD
:102A90009C0111E0892B09F410E0232B49F088E018
:102AA000EF2DF02FA7EAB3E001900D928A95E1F7A0
:102AB000212F44E06FEA73E087EA93E00E947015EB
:102AC0000E947604812F28960FB6F894DEBF0FBEC1
:102AD000CDBFDF91CF911F910F91FF900895089581
:102AE000FF920F931F93CF93DF93F82E092F162F8A
:102AF000D72FC42F222349F081E08093E1010E9467
:102B00006B2E9093E0018093DF018091E101882397
:102B1000A1F08091DF019091E0010E94972E05972E
:102B200060F0EF2DF02FA12FBD2F90E080E0D0E0DE
:102B30008C179D0744F01092E101DF91CF911F9116
:102B40000F91FF900895219131912D933D9301961E
:102B5000EFCF0E946B300E9497110C9477300E9447
:102B60007B300E943B120C9495300E940B2E0E94E9
:102B700052300E947D110E94A9150E94AF150E943B
:102B80008F11FBCF8091E801209111043091120444
:102B900080FF13C08091070190E0B9010E94EB35DE
:102BA0009C01369527953695279520383105A0F557
:102BB0002115310599F1822F089581FF0AC0809176
:102BC000070190E0B9010E94EB359C0136952795ED
:102BD000ECCF82FF08C08091070190E0B9010E940C
:102BE000EB359C01E2CF8091E7018823F1F240911F
:102BF00006016091070170E0841710F0C901EFCF62
:102C000090E00E94EB35B9010E94EB35642F70E033
:102C10000E94FC359B01C9CF8FE7089581E008959C
:102C20008091E80180FF0CC06091030170E0759510
:102C30006795759567956115710559F1862F08950A
:102C400081FF06C06091030170E075956795F3CF31
:102C50006091030170E082FD0CC06091E601662383
:102C6000A9F0209102018091030190E0621730F0F9
:102C7000BC0160387105F8F28FE7089570E00E949A
:102C8000EB35622F70E00E941036F3CF61E070E008
:102C9000D5CF81E00895805F803108F045C0E82FEE
:102CA000F0E0ED54F94C0C9424360E94C215819545
:102CB0008093EC0108950E94C215FACF0E94C215BC
:102CC00081958093EB0108950E94C215FACF0E946E
:102CD00010168093ED0108950E9410168195F9CF8A
:102CE0000E94101681958093EE0108950E9410169F
:102CF000FACF8091EA0181608093EA010895809182
:102D0000EA018260F9CF8091EA018460F5CF809179
:102D1000EA018860F1CF8091EA018061EDCF809176
:102D2000E80181608093E80108958091E801826064
:102D3000F9CF8091E8018460F5CFE82F3091EC0164
:102D40002091EB019091ED018091EE01E03FA1F423
:102D500037FD1092EC018091EB019091EC01892BF1
:102D600011F41092E7018091ED019091EE01892B11
:102D700011F41092E6010895E13F19F413164CF393
:102D8000EACFE23F29F427FFE6CF1092EB01E3CF31
:102D9000E33F19F41216CCF3DECFE93F29F41916FC
:102DA000D4F61092ED01D7CFEA3F19F497FFD3CFB5
:102DB000F8CFEB3F29F487FFCECF1092EE01CBCFB7
:102DC000EC3F19F41816CCF3C6CFE45FEC3008F0F2
:102DD000C2CFF0E0ED53F94C0C9424368091EA0117
:102DE0008E7F8093EA01B7CF8091EA018D7FF9CF82
:102DF0008091EA018B7FF5CF8091EA01877FF1CF47
:102E00008091EA018F7EEDCF8091E8018E7F8093E3
:102E1000E801A1CF8091E8018D7FF9CF8091E80191
:102E20008B7FF5CF0E946B2E2091EB013091EC014E
:102E3000232B21F08093E4019093E5012091ED0193
:102E40003091EE01232B21F08093E2019093E30176
:102E500089EE91E00C94452DCF92DF92EF92FF9294
:102E60000F931F93CF93DF9300D000D000D0CDB746
:102E7000DEB726E0E9EEF1E0CE010196DC0101903B
:102E80000D922A95E1F7C090EB01D090EC01E09013
:102E9000ED01F090EE011092EB011092EC01109216
:102EA000ED011092EE012C2D2D298C0191F08091D5
:102EB000E4019091E5010E94972EFC012091E70129
:102EC000222309F440C0809108018E171F0608F4E0
:102ED00049C08E2D8F2991F08091E2019091E301FC
:102EE0000E94972EFC012091E601222309F47DC067
:102EF000809104018E171F0608F486C08091EB01B3
:102F00009091EC01892B9091ED01892B9091EE012C
:102F1000892B11F00E94121786E0F801A9EEB1E0AA
:102F200001900D928A95E1F726960FB6F894DEBFD0
:102F30000FBECDBFDF91CF911F910F91FF90EF900A
:102F4000DF90CF9008958091090190E06AE070E0F1
:102F50000E94EB358E179F0708F0BBCF2F5F2093A1
:102F6000E70102C02F3FD1F7CC2051F00E94C215DB
:102F70006FEF1C140CF461E00E94E2358093EB01CA
:102F8000DD2051F00E94C2156FEF1D140CF461E0BA
:102F90000E94E2358093EC018091EB01882309F4D3
:102FA00098CF2091EC01222309F493CF082E000C36
:102FB000990B65EB70E00E94EB35992371F09093CB
:102FC000EB01822F220F990B65EB70E00E94EB352D
:102FD000992339F09093EC017CCF81E08093EB0151
:102FE000F0CF81E08093EC0174CF8091050190E0F7
:102FF0006AE070E00E94EB358E179F0708F07ECFE5
:103000002F5F2093E60102C02F3FD1F7EE2051F051
:103010000E9410166FEF1E140CF461E00E94E2355E
:103020008093ED01FF2051F00E9410166FEF1F14E6
:103030000CF461E00E94E2358093EE018091ED0195
:103040002091EE01882309F459CF222309F456CFA9
:10305000082E000C990B65EB70E00E94EB3599236C
:1030600071F09093ED01822F220F990B65EB70E0C8
:103070000E94EB35992339F09093EE013FCF81E028
:103080008093ED01F0CF81E08093EE0137CF86E0B1
:10309000E9EEF1E0DF011D928A95E9F71092E70170
:1030A0001092E6011092E801089583E290E00E94F8
:1030B0006736833989F484E290E00E946736873965
:1030C00059F485E290E00E94673691E0823209F07F
:1030D00090E0892F8170089580E0FCCFCF93C82FB6
:1030E0006FEF811163E983E290E00E9475366FEF24
:1030F000C11167E984E290E00E9475366FEFC1115B
:1031000062E285E290E0CF910C9475360895CF93FA
:10311000DF9300D000D0CDB7DEB786E290E00E940A
:103120006736282F30E050E040E0CA01B9010F9027
:103130000F900F900F90DF91CF9108950895CF9346
:10314000C62F0E949E186C2F86E290E0CF910C94BF
:10315000753680E00E946E1860E070E0CB010E943E
:103160009F180E945D1F0E94002181E00C946E1840
:103170000E9486180E9487180E949E180E94551867
:10318000811102C00C94A9180895CF939C01FB01F2
:10319000C281CC2301F182519F45409720F58EEEEC
:1031A000820F0E941021C0E08C2FCF91089581E002
:1031B0000E947E0A43E062E081E00E946B04F3CF4C
:1031C00081E00E94890A43E062E081E00E946B0492
:1031D000EBCF82E0F6CF80319F4591F321313F451F
:1031E000C1F3C1E0E1CF2031EFE53E0701F382E01A
:1031F00021313F45E9F2D8CF2FEFFC01208308951C
:10320000EF92FF920F931F93CF93DF93CDB7DEB76B
:103210002E970FB6F894DEBF0FBECDBF8D839E8371
:10322000162FAD81BE81EC918091ED029091EE025E
:10323000892B79F0EE3F31F511968C91833018F09F
:1032400085508330F8F4612F8D819E810E94831C0C
:1032500019C0E43150F4EE2351F0E150E33138F479
:10326000F0E0E153F94C0C942436EE3F61F3612F0A
:103270008D819E810E94FC1805C0ED81FE81118226
:1032800089E08283612F8D819E812E960FB6F894FE
:10329000DEBF0FBECDBFDF91CF911F910F91FF9089
:1032A000EF900C94432FAD81BE8111968C918230AA
:1032B00099F0833011F18130D1F60E94772E0E946F
:1032C0002A366F83788789879A87ED81FE816283AA
:1032D000738384839583D6CF0E9487180E942A36F1
:1032E0006B877C878D879E87AD81BE8112966D939B
:1032F0007D938D939C931597C5CF8091EF0290910C
:10330000F002892B09F4BECFED80FE8000E0802F13
:103310000E945614F701928383830F5FF2E0EF0E51
:10332000F11C0430A1F7AECFAD81BE8111968C9116
:103330001197823009F09BCF12968D919D910D903F
:10334000BC91A02D89839A83AB83BC83BC01CD0142
:103350000E942A360E949F1895CFED81FE814381FD
:10336000628181810E94A21E982789279827AD81BA
:10337000BE8115969C938E93149784CFED81FE8128
:10338000248135813227232732274381628181813D
:103390000E94C41E77CF0E945D1F74CF8FEFAD8156
:1033A000BE818C936FCF0E94B420ED81FE8181831A
:1033B00069CF0E94B620982789279827AD81BE81C2
:1033C00012969C938E9311975DCFED81FE812181A2
:1033D00032819381692F70E09D3108F053CFAF01A6
:1033E0004C5F5F4F922F832F0E94B9204BCF80916B
:1033F000EF029091F002892B09F444CFAD81BE8198
:1034000011962D913C91129713969C911397692FC9
:1034100070E09D3108F036CFAD014C5F5F4F922FC9
:10342000832F0E94DD202ECF0E9400212BCF0E94EF
:10343000891EBBCFAD81BE8111962D913C91129713
:1034400013969C911397692F70E09D3108F01ACF65
:10345000AD014C5F5F4F922F832F0E94EB1F12CF65
:10346000ED81FE81218132819381692F70E09D3150
:1034700008F008CFAF014C5F5F4F922F832F0E945F
:103480000E2000CF8091EF029091F002892B09F479
:10349000F9CE8D819E810E94432FFFEF21EE84E0C3
:1034A000F15020408040E1F700C000000E94CA2E89
:1034B000E9CE8F929F92AF92BF92CF92DF92EF921E
:1034C000FF920F931F93CF93DF93CDB7DEB72A9769
:1034D0000FB6F894DEBF0FBECDBF07E212E0F12CAD
:1034E000E12C87EDC82E8BE1D82E91E0A92E9CE12E
:1034F000B92E2CED822E2AE1922EF801D182C082C3
:10350000B382A28295828482F58AE48ABE016F5FCB
:103510007F4F8E2D0E94FD1E892B29F489859A8567
:10352000F801938B828BFFEFEF1AFF0A0A5E1F4FA1
:1035300088E0E816F10409F72A960FB6F894DEBF82
:103540000FBECDBFDF91CF911F910F91FF90EF90F4
:10355000DF90CF90BF90AF909F908F900895CF93C2
:10356000DF9300D000D00F92CDB7DEB79093080460
:1035700080930704811520E2920748F40F900F9082
:103580000F900F900F90DF91CF910C94D5038EEF99
:1035900089838A831B820E946B2E8160782F4981E8
:1035A0005A816B81892F0F900F900F900F900F9081
:1035B000DF91CF910C9407060F931F93CF93DF9366
:1035C0008C01EB0167ED72E08C2F0E94FD1E892BB0
:1035D000A1F48091270490912804009799F4DD27A5
:1035E000CF51DD4F8881F80110821882833049F174
:1035F00088F4813099F08230C1F0DF91CF911F9132
:103600000F910895EFE9FFE03197F1F700C0000056
:103610000197E3CF8430D1F0853079F78091D702DC
:103620009091D802009749F306C08091D9029091F9
:10363000DA02009799F3DF91CF911F910F910C94CB
:10364000AF1A8091DB029091DC02F3CF8091DD0212
:103650009091DE02009779F72091D7023091D8023D
:103660008091D9029091DA0221153105D9F20097A3
:1036700011F7C901E0CFCF93DF9300D000D00F92B4
:10368000CDB7DEB79093080480930704811520E23C
:10369000920748F40F900F900F900F900F90DF91CA
:1036A000CF910C94C0038EEF89838A8381E08B8352
:1036B0000E946B2E8160782F49815A816B81892FFE
:1036C0000F900F900F900F900F90DF91CF910C946F
:1036D0000706CF92DF92EF92FF921F93CF93DF9373
:1036E000CDB7DEB72A970FB6F894DEBF0FBECDBFB9
:1036F000E7EBF3E080E5DF011D928A95E9F7EFEE55
:10370000F1E088E3DF011D928A95E9F787EBC82E87
:1037100083E0D82E7F0110E0F701D182C082BE0184
:103720006F5F7F4F812F0E942D1F892B79F488E0D6
:10373000FE013196D60101900D928A95E1F78985B7
:103740009A85D70113969C938E931297BAE0CB0E6D
:10375000D11CE7E0EE0EF11C1F5F1830E9F62A9647
:103760000FB6F894DEBF0FBECDBFDF91CF911F9192
:10377000FF90EF90DF90CF900895CF93DF93D82FF5
:10378000C92F0E943B1B8091270490912804009729
:1037900031F48D2F9C2FDF91CF910C94AF1AEFE96C
:1037A000FFE03197F1F700C000000197F0CF0F93D1
:1037B0001F93CF93DF938C01862F67ED72E00E94F9
:1037C000FD1E892BC9F4C091D702D091D802209751
:1037D00099F0F8018081833069F4CE010E94BD1B0D
:1037E000CE010E94BD1BCE01DF91CF911F910F91A1
:1037F0000C94BD1B8430B8F7DF91CF911F910F91CE
:1038000008950F931F93CF93DF938C01EB0167ED26
:1038100072E08C2F0E94FD1E892B09F063C0FE010F
:10382000FF27D8018C91EF51FD4F8130D1F41996CB
:103830008C91199781115BC01A968C91882309F499
:1038400056C082E080838091D9029091DA0200977D
:10385000D9F48091D7029091D802009709F442C020
:1038600013C08230E9F519968C91199781112DC0FA
:103870001A968C9181110EC083E080838091DB02C7
:103880009091DC02009719F1DF91CF911F910F9178
:103890000C943B1B84E080838091DD029091DE02DA
:1038A000009791F78091D7029091D802009711F17B
:1038B0000E94BD1B8091D9029091DA02009721F7F6
:1038C0008091D7029091D802DFCF85E080838091EC
:1038D000D7029091D802009729F00E94BD1BF0CF2B
:1038E00086E08083DF91CF911F910F91089581E051
:1038F0008083AFCF8091D9029091DA02AECF0E943F
:10390000591A0C94691BDF92EF92FF920F931F9349
:10391000CF93DF93CDB7DEB72A970FB6F894DEBF0B
:103920000FBECDBF8C01603239F5DC011196EC91F0
:103930001197EE3008F5F0E0EE51F94C0C94243676
:1039400088E0E5E3F1E0DE01119601900D928A95A1
:10395000E1F7F80131968FE1DF011D928A95E9F7D1
:1039600084E0F801808388E0FE013196D801149646
:1039700001900D928A95E1F72A960FB6F894DEBF72
:103980000FBECDBFDF91CF911F910F91FF90EF90B0
:10399000DF90089580E28C9382E011968C931197CA
:1039A00012961C92129713961C92E6CFFC0183810B
:1039B00090E0982F88272281820F911D092E000CFC
:1039C000AA0BBB0B45E0880F991FAA1FBB1F4A9586
:1039D000D1F7AC01BD01405E5F4F6F4F7F4F48177D
:1039E00059076A077B0740F28032F2E09F07A10582
:1039F000B10510F6413222E052076105710520F051
:103A000040E252E060E070E0481B590BBC016C588A
:103A10007D4FC8012A960FB6F894DEBF0FBECDBF0A
:103A2000DF91CF911F910F91FF90EF90DF900C9459
:103A3000313640E250E06FEF70E00E9450368091E6
:103A4000EF02D8018C938091ED0211968C9311971F
:103A500012961C92129713961C92139714961C920E
:103A6000149781E015968C9387CF81E090E0909336
:103A7000EE028093ED0282E390E09093EC0280935B
:103A8000EB020E946B2E9093EA028093E90274CFBE
:103A90008091ED029091EE02892B91F160E080E03F
:103AA0000E944014E82E61E080E00E944014F82E4D
:103AB0008091E9029091EA020E94972E8536910545
:103AC00050F1EE2041F1FF2031F10E946B2E9093D6
:103AD000EA028093E9028091EB029091EC02019757
:103AE0009093EC028093EB02892B51F41092EE023A
:103AF0001092ED0281E090E09093F0028093EF024B
:103B00008091EF02F80180838091ED0281838091A2
:103B1000EB02828331CF82E390E09093EC028093BA
:103B2000EB02EECF1092F0021092EF0225CF40E2AE
:103B300050E0BC0112968D919C912A960FB6F89494
:103B4000DEBF0FBECDBFDF91CF911F910F91FF90D0
:103B5000EF90DF900C945222BC016F5F7F4F4FE1DA
:103B600050E0FC01828193810E948422D8018C93D1
:103B700003CFBC016C5F7F4F4CE150E0FC018281C0
:103B800093810E94B222F2CF2A960FB6F894DEBF3C
:103B90000FBECDBFDF91CF911F910F91FF90EF909E
:103BA000DF900C941522FC018281823009F43FC021
:103BB00068F4811125C031968FE1DF011D928A954D
:103BC000E9F788E0F80180838183D6CE833009F459
:103BD00042C0843009F0D0CE13968C919AE034968E
:103BE000DE01119601900D929A95E1F7BE016F5F8B
:103BF0007F4F0E94451FF80180830E94691BBCCE45
:103C000013968C912AE0D22EFE0131967F01DF01BE
:103C1000ED2D1D92EA95E9F7B7010E94FD1ED8012E
:103C20008D93F70101900D92DA94E1F7A5CE1396EA
:103C30008C919AE03496DE01119601900D929A953E
:103C4000E1F7BE016F5F7F4F0E94151FF80180836F
:103C50000E94591A91CE13968C919AE0D92EFE01AA
:103C600031967F01DF01ED2D1D92EA95E9F7B7014D
:103C70000E942D1FD4CFCF93DF93EC01FB018281F3
:103C800081112FC0D755CF3FD10509F050F567ED11
:103C900072E08C2F0E94FD1E892B19F5CE0166E182
:103CA00070E00E94EB35FC01E95DFD4F86818130BB
:103CB000E1F48091D7029091D802892B91F0809104
:103CC000D9029091DA02892B61F08091DB02909108
:103CD000DC022091DD023091DE02822B932B892BB6
:103CE00061F081E0DF91CF9108958230D1F780912A
:103CF000DB029091DC02892BA1F3CE0166E170E03A
:103D00000E94EB35895D9D4FFC01108A0E94982B23
:103D1000E8CF84E00895E82F862F90E06CE170E012
:103D20000E94EB3550E0440F551F9C01240F351FB6
:103D30008E2F90E060E770E00E94EB35820F931FBA
:103D4000879608950F931F93CF93DF93982F962B09
:103D50009430B8F44E30A8F40E948B1E8C010E945F
:103D60006736C82FD0E0DC2FCC27C80101960E940F
:103D700067369E01282BC901DF91CF911F910F91CA
:103D8000089590E080E0F8CF0F931F93CF93DF93D7
:103D9000E901982F962B9430D0F44E30C0F42115C1
:103DA0003C4531F42091EF023091F002232B79F061
:103DB0000E948B1E8C016D2F0E9475366C2FC801DE
:103DC0000196DF91CF911F910F910C947536DF9181
:103DD000CF911F910F9108958232910520F489515E
:103DE0009E4F0C94673680E008958232910520F44E
:103DF00089519E4F0C9475360895362F272F8830A1
:103E000088F490E06AE070E00E94EB35BC01675FE7
:103E10007D4F4AE050E0832F922F0E94573690E06A
:103E200080E008958FEF9FEF0895362F272F883079
:103E300088F490E06AE070E00E94EB35BC01675FB7
:103E40007D4F4AE050E0832F922F0E94993690E0F8
:103E500080E008958FEF9FEF0895362F272F883049
:103E600088F490E06AE070E00E94EB35BC01675A8C
:103E70007D4F4AE050E0832F922F0E94573690E00A
:103E800080E008958FEF9FEF0895362F272F883019
:103E900088F490E06AE070E00E94EB35BC01675A5C
:103EA0007D4F4AE050E0832F922F0E94993690E098
:103EB00080E008958FEF9FEF08958F929F92AF92C9
:103EC000BF92CF92DF92EF92FF920F931F93CF9307
:103ED000DF93CDB7DEB764970FB6F894DEBF0FBEA1
:103EE000CDBFA090EF02B090F00281E090E09093FF
:103EF000F0028093EF02F12CE12CC70168E370E03F
:103F00000E94EB358C01912C15C0F601259134915E
:103F1000482D692D8E2D0E94C41E22E0C20ED11C98
:103F200083943EE08312F1CF025F1F4F939484E0AD
:103F3000981649F0C801880F991FDC01AC58BF4F93
:103F40006D01812CE2CFBFEFEB1AFB0A24E0E216F1
:103F5000F10499F60E9415221C861B861E861D867A
:103F6000188A1F861A8A198A88EC90E09C8B8B8BA2
:103F700010E0BE01655F7F4F812F0E94151F1F5FFC
:103F80001830B9F7FE0131968AE0DF011D928A955B
:103F9000E9F710E0FE2E0F2F6F2D702F812F0E945A
:103FA000451F1F5F1830C1F7B092F002A092EF02D8
:103FB00064960FB6F894DEBF0FBECDBFDF91CF91F0
:103FC0001F910F91FF90EF90DF90CF90BF90AF9037
:103FD0009F908F900895EF92FF920F931F93CF932E
:103FE000DF938C01EA017A01E60EF71EC80187967D
:103FF000CE15DF0539F4DF91CF911F910F91FF901E
:10400000EF900895003C21E0120730F40E946736DB
:1040100089930F5F1F4FEACF80E0FACF6F927F92B4
:104020008F929F92AF92BF92CF92DF92EF92FF92C8
:104030000F931F93CF93DF93EC017B018A01803CA8
:104040009140C8F480EC91E08C1B9D0B861797077C
:1040500090F03E0137E2630E711C8091EF02909167
:10406000F002892BB9F0E00EF11ECE0187960E15F5
:104070001F0509F051C0DF91CF911F910F91FF9063
:10408000EF90DF90CF90BF90AF909F908F907F90F8
:104090006F9008956E0181E0C822DD24C0FF0FC03B
:1040A000CE0186960E946736F8019081892798276D
:1040B000892781159C4519F48FEFF8018083CE0183
:1040C0008E0D9F1D570180FF13C0F1E0AF1AB1089C
:1040D00048018A0C9B1CC3018E0D9F1D0E946736F0
:1040E000F401908181159C4519F48FEFF4018083D0
:1040F000F801EC0DFD1D2FEFCA14DB0408F0B3CF5F
:104100009081818181159C4511F42083218382E077
:10411000C80ED11C3296F0CFC03CE1E0DE0720F49F
:10412000F80160810E9475360F5F1F4F21969DCF69
:10413000462F672F2091ED023091EE02232B89F458
:104140007E3F39F44E3F69F4809107049091080452
:104150000895982F972B943020F44E3010F40C943F
:10416000A21E90E080E0089580E1089587E591E047
:104170000895EF92FF920F931F93CF93DF938C01DB
:10418000EA017A01E60EF71EC80187559D4FCE154C
:10419000DF0539F4DF91CF911F910F91FF90EF90E0
:1041A0000895073521E0120730F40E94673689939D
:1041B0000F5F1F4FE9CF80E0FACFEF92FF920F938E
:1041C0001F93CF93DF938C01EA017A01E60EF71E6D
:1041D000C80187559D4FCE15DF0539F4DF91CF918A
:1041E0001F910F91FF90EF900895073521E012077E
:1041F00018F468810E94753621960F5F1F4FE8CF33
:10420000CF93DF93C9EAD2E060E0CE010E94753619
:104210002196C11584E0D807B9F7DF91CF910895B1
:10422000CF92DF92EF92FF920F931F93CF93DF9382
:1042300000D000D0CDB7DEB7F82E2FE0281740F021
:104240008FEF93E00E94673609EA12E08823C9F0F5
:104250000F900F900F900F90DF91CF911F910F91C2
:10426000FF90EF90DF90CF900895011544E0140780
:1042700079F3C8010E946736811101C0FA940F5F7B
:104280001F4FF110F2CF80911F0190912001A0915A
:104290002101B091220189839A83AB83BC83780189
:1042A0005FEFE51AF50AC8010E94673689831A8212
:1042B000882371F2813009F046C0680182E0C80E9F
:1042C000D11CC7010E946736E82E8A83882309F42F
:1042D000BFCFC6010E946736F82E8FEF8E0D833058
:1042E00068F46801E3E0CE0ED11CFB82FF2021F0D0
:1042F000CE0101960E94D4058601D1CFF4E0EF12E1
:10430000FBCF680124E0C20ED11CC80103960E94B5
:104310006736FF2009F49CCF882309F499CF815098
:10432000990B6FEF70E00E94EB354F2D4150550B0C
:10433000840F951F019700F3EFE9FFE03197F1F744
:1043400000C00000F7CFCE0101960E94D40567019E
:10435000D3CFE9E0F4E0848195812AE030E0B9012F
:104360000E94FC3560930901868180930801828553
:104370008093070184858093060186859785B9011E
:104380000E94FC3560930501808980930401828935
:104390008093030184898093020108958091090428
:1043A00090910A040C949E250F931F93CF93DF9353
:1043B00009E014E0D0E0C0E0CE010E94EC1EF8015C
:1043C00061918F01861719F0CE010E94F51E21968A
:1043D000C232D10589F7DF91CF911F910F910895D6
:1043E0000F931F93CF93DF9309E014E0D0E0C0E078
:1043F000CE010E94EC1EF80181938F012196C232FA
:10440000D105B1F7CAE9D4E0FE01859194910097F6
:1044100011F0FC0109952896F5E0C233DF07A1F7FA
:10442000DF91CF911F910F910895E9E0F4E0128E92
:10443000138E8FEA90E09183808385E0848F88E8F3
:1044400093E1938382838AE090E09583848324E1DF
:1044500030E03783268348E050E0518740879387D8
:1044600082872EE130E0358724879787868720E58D
:1044700030E0318B208B538B428B48E250E0558BE0
:10448000448B42E350E0578B468B48EC50E0518F11
:10449000408F158E978F868F31A320A30E94D42141
:1044A0000C94F021EF92FF920F931F93CF93DF9321
:1044B0007C01EB018A016FEF70E0CE010E94503663
:1044C00024E934E0ACE2B5E090E080E0AC014E5F7E
:1044D0005F4F0417150788F0F90165917491E6168E
:1044E000F70630F48C0F9D1FFC0171836083CA01B5
:1044F000285F3F4FA217B30749F7DF91CF911F9174
:104500000F91FF90EF900895CF93DF93EC01CB01D3
:10451000DA0124E934E0F90145915491C417D50733
:1045200049F0285F3F4F45E02C323407A1F78FEF69
:104530009FEF15C0A9014E5F5F4FFA01659174911D
:10454000A617B707A0F3FA01459154912C5F3F4F8E
:10455000F901659174910E94473690E080E0DF9107
:10456000CF910895CF93DF93DC019A01C4E9D4E0A1
:10457000FE0185919491A817B90741F0289685E02E
:10458000CC32D807A9F78FEF9FEF1DC0CE0102965E
:10459000FC014591549124173507A8F3FC0145917E
:1045A0005491FE013496859194910E9447360E9461
:1045B000D421FE01369685919491009711F0FC016B
:1045C000099590E080E0DF91CF91089580912104DA
:1045D000909122040895809126048170089580911D
:1045E00026048695817008958091260482FB882791
:1045F00080F908958091260483FB882780F9089527
:1046000080911F049091200408959C0188329105A7
:1046100068F44E97E8F4245031098091240482957F
:1046200081702A313105C8F080E008958933910501
:1046300058F48D32910510F48B97B1F780912404D2
:1046400082FB882780F909C084369105B9F3ECCF45
:104650008091240483FB882780F991E089270895BD
:104660008091240485FB882780F908958091240493
:1046700086FB882780F90895CF93DF93EC01FB0137
:104680008281882309F4F2C0C136FDE5DF0749F0D5
:1046900048F5C631ECE5DE07E0F4C230FCE5DF07A3
:1046A000F0F00E94CB109093A6038093A503C6312F
:1046B000ECE5DE0748F5C230FCE5DF07C0F4809189
:1046C000A5039091A6030E94D9100E94290780E0BB
:1046D00006C09E012A5F3C452930310510F3DF9169
:1046E000CF910895C53A9DE5D907C9F7DACFFE0104
:1046F000E350FC458091A5038160E331F10528F585
:10470000E051F94C0C942436C3308DE5D80770F491
:10471000CA3F9CE5D90798F2FE01EB5FFC45E83003
:10472000F10510F5ED5FF84C0C942436C136EDE53B
:10473000DE0709F494C09091A503892F8E7F90FF26
:104740008160C53ADD4509F0BACF8093A503B7CFA4
:104750008091A5038260F9CF8091A5038460F5CF95
:104760008091A5038860F1CF8091A603816080933A
:10477000A603A5CF8091A6038260F9CF8091A503FF
:104780008061E3CF8091A5038062DFCF8091A50394
:104790008064DBCF0E9429078091A5038068D5CF74
:1047A0008091A5038C60D1CF8091A6038360DFCF79
:1047B0008091A5038E7FC9CF8091A5038D7FC5CF42
:1047C0008091A5038B7FC1CF8091A503877FBDCF4B
:1047D0008091A6038E7FCBCF8091A6038D7FC7CF1C
:1047E0008091A5038F7EB1CF8091A5038F7DADCF42
:1047F0008091A5038F7BA9CF0E9429078091A503F3
:104800008F77A3CF8091A503837F9FCF8091A6034D
:104810008C7FADCF8091A50382FB992790F921E091
:10482000922790FB82F990FB83F98FCF8091A603AA
:10483000982F909591708E7F892B90FB81F997CF5F
:104840000E9429079091A503892F97FB87F980582B
:104850007CCF81E00E945E1132CF80E0FBCF90914F
:10486000A503892F8F7E94FF80616FCF81E037CFC2
:1048700080910A01877F80930A0182E00E94AC0F39
:1048800080910A0184FF06C08F7E80930A0182E036
:104890000E94920F80910A0185FF06C08F7D809350
:1048A0000A0180E20E94920F0C94F90FCF93DF93DC
:1048B000EC01662319F082E00E94A60FCE0190560B
:1048C000811520E2920720F0905E8115904108F456
:1048D000DD27CE01DF91CF910C94C0039C013056AF
:1048E000211540E2340720F0305E2115304108F4F4
:1048F00099270C94D503AC0123E0969587952A95CA
:10490000E1F78E719927FC01EF50FD4F0190F08186
:10491000E02D4F70552721E030E002C0220F331FF9
:104920004A95E2F7662341F0E22BF32B8F509D4F1F
:10493000DC01ED93FC93089520953095E223F32359
:10494000F5CF9C01FC0183E0F695E7958A95E1F7A8
:10495000EE71FF27EF50FD4F2F70332781E090E07D
:10496000AC0102C0440F551F2A95E2F79A018081DD
:1049700091812823392381E0232B09F480E00895D5
:10498000DF92EF92FF920F931F93CF93DF93EC018F
:104990007B01D42E890180910A0182FF87C020917A
:1049A000190330911A032C173D0719F0209709F0CD
:1049B0007DC090910A019B7F90930A0161E091FD77
:1049C00010C080911B0390911C03A701481B590B39
:1049D00061E080910B0190910C014817590708F490
:1049E00060E0617080910A0160FB81F980930A01A7
:1049F000C9010E947B240E948F0F81FF08C0809113
:104A00000A01806180930A0182E00E94980F0E944F
:104A10008F0F85FF08C080910A01806280930A0190
:104A200080E20E94980F60910A0166956170A8016A
:104A30008091190390911A030E945624D11014C03A
:104A40008091270490912804009741F560910A0114
:104A500066956170A8018091190390911A030E94D4
:104A60006E240E94382431C0B801809119039091BE
:104A70001A030E943023882319F3B8018091190387
:104A800090911A030E9436238111DACFDF91CF91E2
:104A90001F910F91FF90EF90DF900895EFE9FFE0F5
:104AA0003197F1F700C000000197CECFCE010E94F0
:104AB000A124682FA801CE010E946E2480911903C1
:104AC00090911A038C179D0761F2F0921C03E092FB
:104AD0001B03DCCF8091240480FF1EC080910A015B
:104AE00082FF1AC00E946B2EBC0180911B03909123
:104AF0001C039B01281B390B80910B0190910C0129
:104B00002817390748F021E133E041E0809119038B
:104B100090911A030C94C024089590910A01892F52
:104B20008E7F90FF816080930A010C9438248091DD
:104B30000A018E7F80930A010C94382490930C0113
:104B400080930B010895CF92DF92EF92FF920F9323
:104B50001F93CF93DF93EC018B018091240480FDA0
:104B60000CC0FF24F3948F2DDF91CF911F910F91F3
:104B7000FF90EF90DF90CF9008950E946B2E6C0114
:104B8000F8018281882391F180910A0182FF08C097
:104B900021E133E040E0B60190E080E00E94C024D3
:104BA000CB31FCE5DF07C9F0CC312CE5D207D9F0D9
:104BB000CA318CE5D80711F40E948D25CE0190569C
:104BC0008115E0E29E0720F0905E81159041E0F4AF
:104BD00010921A0310921903C4CF80910A018160C8
:104BE00080930A01EBCF0E949725E8CF80910A01BC
:104BF0008F7EC13ED10531F0C53ED105B9F580911A
:104C00000A018F7D80930A0180910A0180FFA9CF5C
:104C1000B801CE010E940523F801F280882309F42F
:104C2000C8C0FF2009F4BEC00E948F0FF82E0E945A
:104C3000B70F8F298D7FB9F110921A0310921903C3
:104C40008091240481FD2FC060E0CE010E947B246E
:104C5000A80160E0CE010E9456240E94B70F8D7F0C
:104C60000E94D30F82E00E94721076C0CE0190564F
:104C7000811520E2920720F0905E8115904120F688
:104C800080910A0182FF6DCFB801CE010E94EF2210
:104C9000811167CF21E133E040E0B60190E080E090
:104CA0000E94C0245ECF88E0F801A1E1B3E001904A
:104CB0000D928A95E1F7109213031092150310924A
:104CC00014038091190390911A03C817D90709F0AA
:104CD0004AC0B801CE010E943023882309F443C0A2
:104CE0008091190390911A0320910A0121FD36C089
:104CF00080911B0390911C037601E81AF90AB80110
:104D00008091190390911A030E94E622E816F90691
:104D100050F50E948F0F81FF08C080910A018061C9
:104D200080930A0182E00E94980F0E948F0F85FFF6
:104D300008C080910A01806280930A0180E20E948B
:104D4000980F60910A0166956170A801809119031E
:104D500090911A030E945624F12C05CFB8010E94AD
:104D600036238111C5CF0E948F0F182F0E94B70FD5
:104D7000182B80910A0111FB81F980930A010E948E
:104D8000B70F8D7F0E94D30FD0931A03C0931903DE
:104D9000D0921C03C0921B0380910A01846080930F
:104DA0000A0160CF980140E0B601CE010E94C02404
:104DB000DACEF1100DCFD5CE08951F93CF93DF93A8
:104DC00080918803C0911D0381111DC0DF91CF9197
:104DD0001F91089511E01C0F10931D03D0E0CE0128
:104DE0006CE070E00E94EB35FC01E85DFC4F8381D4
:104DF00094813C2F4D2F892B29F0208181812823FC
:104E00002F3FF9F4C12F80918803C81718F310922F
:104E1000880310921D03DACF808591858F3F980714
:104E2000A1F061E00E94DC26CE016CE070E00E94FF
:104E3000EB35FC01E85DFC4F148213820E94B40F35
:104E4000E1CF86819781892B39F3832F942F6CE0F2
:104E500070E00E94EB35FC01E85DFC4F2081318160
:104E60004281538164817581868197810E948E0E73
:104E7000DBCF10928A031092890320910E013091AA
:104E80000F01EFEEF1E090E080E02817390709F418
:104E900008954581411102C0148216820196379609
:104EA000F4CFA0912603509127034A2F541301C039
:104EB0000895242F30E0F901EE0FFF1FE25EFC4F52
:104EC000608171816817790791F467E070E00E9452
:104ED000EB35FC01E151FE4F81E084834A13E8CFBA
:104EE0002F5F3F4F237033272093260308952F5FB2
:104EF0003F4F422F4370DACF7F928F929F92AF92B3
:104F0000BF92CF92DF92EF92FF920F931F93CF93B6
:104F1000DF93782E492FDB0114968C911497811121
:104F200067C080908803E8E2F3E090E080E050E022
:104F300001E010E0881508F045C0A284B384CD904C
:104F4000DC9011972FEF3FEF912C692D70E07B01E2
:104F5000EE0CFF1CEC0CFD1CE701E880F980E1146D
:104F6000F10431F0AE14BF0409F49B019394EDCF2A
:104F70002F3F3207D1F1E80102C0CC0FDD1F2A9587
:104F8000E2F75C2B980102C0220F331F9A94E2F7DC
:104F9000215031095217130631F512962D913C918B
:104FA00013976CE070E00E94EB35FC01E85DFC4F6C
:104FB000378326838EEF808381837086418781E0EB
:104FC00015968C93872D942FDF91CF911F910F9180
:104FD000FF90EF90DF90CF90BF90AF909F908F9019
:104FE0007F900C9451271482138201963C96A2CF95
:104FF000DF91CF911F910F91FF90EF90DF90CF90B5
:10500000BF90AF909F908F907F900895CF93DF9344
:10501000C0912603809127038C1306C00E94DD26D1
:10502000DF91CF910C943927D0E0FE01EE0FFF1FE6
:10503000E25EFC4F20813181C90167E070E00E948F
:10504000EB35BC0161517E4FC9010E947C2721963E
:10505000C370E0CF0F931F93CF93DF93FC01EB015D
:105060002081318140E080E090E0A92FB0E0AA0FDC
:10507000BB1FA20FB31F6D917C9161157105B1F03B
:105080000881198180E005C06A177B0709F441E0B7
:105090008F5FA82FB0E0AA0FBB1FA00FB11F0D900C
:1050A000BC91A02D109781F79F5FDFCF442349F07B
:1050B000891708F4FE01CF01DF91CF911F910F9165
:1050C0000895F0E0E0E0F7CF80910D01882341F1F1
:1050D00080918B0390918C03009711F10E94972E81
:1050E0002091890330918A0328173907C8F49091D9
:1050F000260380912703981759F00E9406281092E2
:105100008A031092890310928C0310928B030895E6
:105110000E94DD2610928C0310928B030C94392789
:10512000089510928C0310928B0310920D018091C0
:105130002703809326030E9439270C94DD26809153
:105140000D0181110C94912881E080930D01089547
:105150002F923F924F925F926F927F928F929F9287
:10516000AF92BF92CF92DF92EF92FF920F931F9375
:10517000CF93DF93CDB7DEB72A970FB6F894DEBF93
:105180000FBECDBF7C012B01FB011281873FFCE5E7
:105190009F07F9F4112321F181E080930D01812F04
:1051A0002A960FB6F894DEBF0FBECDBFDF91CF9128
:1051B0001F910F91FF90EF90DF90CF90BF90AF9035
:1051C0009F908F907F906F905F904F903F902F9027
:1051D0000895883F2CE5920709F04EC0111149C08F
:1051E0000FEE11E0D12CC12C198688248394912CC8
:1051F00080910E0190910F01C816D90608F446C09F
:10520000F2018281882309F45DC1F985FF2309F445
:1052100059C10E946B2E90938C0380938B038091D5
:105220008803883010F591E0980F9093880398E0F8
:10523000F201DE01119601900D929A95E1F790E04E
:105240006CE070E00E94EB35885D9C4F28E0FE0129
:105250003196DC0101900D922A95E1F72FEF3FEF97
:10526000FC0131872087F386E28611E0F9851F274C
:1052700096CF0E94912893CF893F9C4509F0B0CFEB
:10528000112309F4ADCF0E949F2889CFF801208116
:105290003181AA24AA94BB24BA94212C822D90E0B7
:1052A000FC01EE0FFF1FE20FF31F408151814115FA
:1052B000510531F0E416F50609F45C012394EECFB4
:1052C000312CFFEFAF16BF0609F447C0F801448147
:1052D00080910D01411180E0F82FF1703F2EF20115
:1052E0008281882309F48FC0332009F48CC0B8016F
:1052F000C6010E9400233C01F8018581811113C081
:10530000940101C0220FAA94EAF78681822B86833A
:105310008091890390918A038615970520F47092F5
:105320008A0360928903C40102C0880F991F2A94DE
:10533000E2F70197F80126812817190671F4809188
:105340008B0390918C03009789F00E94972E68162A
:10535000790660F421E0F8012483F985F329F987BF
:105360002FEFC21AD20A095F1F4F42CF20902603A7
:10537000309127033A87E0E0F0E08A85281212C0D6
:105380000E171F0751F3822D90E0FC01EE0FFF1F57
:10539000E25EFC4FD182C082019683709927809390
:1053A0002703DBCFA22CB12CF501EE0FFF1FE25E2D
:1053B000FC4F8081918167E070E00E94EB35FC0139
:1053C000E151FE4F3F01B801CF010E942A28FC01A4
:1053D000009799F021E024838017910709F4BDCF4D
:1053E00080912603281209C06E167F0631F4C5018C
:1053F00001968370992780932603C5010196382F63
:105400003370232EBACFF8017580868190E0711039
:105410001EC0940102C0220F331F2A94E2F72150CC
:1054200031098217930731F4442309F449C0C601B6
:105430000E945127C40101C0880FAA94EAF7982F4F
:105440009095F801868189238683372C86CFAC011D
:105450000A2C02C0559547950A94E2F79C01215009
:10546000310982239323892B39F540FF25C082819E
:105470009381892BE1F01B821C821D821E82FEEF2C
:10548000F983FA830E946B2E8160582F692F9D83C8
:105490008C83F801828193818F83988729813A8157
:1054A0004B817E810E948E0EF8011582C3CF60E091
:1054B000C6010E94DC26F8CFF42FF1707F2EBACF00
:1054C000732CB8CF9091260380912703981719F079
:1054D0000E940628CACE0E94DD2610928C031092EC
:1054E0008B030E943927C1CECF93DF93EB01863126
:1054F0009C4509F03BC00E948F0F982F9A7A20910B
:10550000230420FF04C0382F347409F090E021FFF9
:1055100004C0382F317109F090E022FF04C0382F09
:10552000387809F090E023FF03C0827209F090E020
:105530008A81882389F081E0911101C080E0809305
:105540008D0389E2911185E30E94320F0E94F90FC9
:1055500080E0DF91CF91089580918D03811104C087
:1055600089E20E94390FF2CF85E3FBCF81E0F1CFD2
:10557000AF92BF92CF92DF92EF92FF920F931F9361
:10558000CF93DF937C015B01C42FD22FFC0182817A
:105590008823F9F0409390030E946B2E90938F0321
:1055A00080938E0380E28C0F883008F061C0C77052
:1055B00081E001C0880FCA95EAF7DF91CF911F9172
:1055C0000F91FF90EF90DF90CF90BF90AF900C9431
:1055D000010710919003141340C080918E039091A5
:1055E0008F030E94972E6C01B701C5010E94E6222D
:1055F000C816D90690F5C0E2CD0F1D17B9F080E2AC
:10560000810F883040F4177081E001C0880F1A952F
:10561000EAF70E940807C83048F481E09D2F977090
:1056200001C0880F9A95EAF70E940107802F0E9417
:10563000F506C830E8F4D77081E001C0880FDA952C
:10564000EAF7DF91CF911F910F91FF90EF90DF90DC
:10565000CF90BF90AF900C94080780E28C0F8830F9
:1056600038F4C77081E001C0880FCA95EAF7E9CF26
:10567000DF91CF911F910F91FF90EF90DF90CF902E
:10568000BF90AF9008950F939C01CB01233F4CE551
:105690003407A1F190F4283DFCE53F0749F1293D8D
:1056A0004CE53407E9F1273D3C45C1F0FC0182811E
:1056B0008823E1F11092900319C0253FFCE53F07D4
:1056C00019F1263F4CE5340729F1243F3C4571F799
:1056D00007E225EE44EE64EF7CE505C006E221EE2C
:1056E00041EE67ED7CE50E94B82A80E00F910895B5
:1056F00007E225EE45EE68ED7CE5F5CF06E221EE0A
:1057000040EE63EF7CE5EFCF06E221EE42EE65EF7F
:105710007CE5E9CF07E225EE46EE66EF7CE5E3CFD8
:1057200008E221E045EE69ED7CE5DDCF81E0DECFEA
:10573000CF93DF93EC018989811115C081E0898BBA
:105740008F810E94920F88850E94A60F0E94F90FF8
:10575000EA81FB816C897D89309729F0CE0106961C
:10576000DF91CF910994DF91CF9108950F931F930B
:10577000CF93DF93EC018A85811132C00B811C81AC
:105780001755C80166E170E00E94EB35DC01A95DA8
:10579000BD4F1496ED91FC911597309731F05496CA
:1057A0006D917C91835D9D4F0995C80166E170E024
:1057B0000E94EB358C01095D1D4FF80187810E9425
:1057C000980FF80180850E94AC0F0E94F90F188293
:1057D00019861B861E821D821092920310929103DD
:1057E000DF91CF911F910F910895DF92EF92FF9279
:1057F0000F931F93CF93DF938C01FB01828188234A
:1058000099F08091100190911101019669F0C7E221
:10581000D2E0F12CE12CDD24D39480911001909101
:1058200011018E159F0544F4DF91CF911F910F91C7
:10583000FF90EF90DF9008958E818823C1F08985D5
:105840009A858017910739F4809191039091920382
:105850008017910761F0DF861C870B87CE010E94BD
:10586000982BCE0106960E94B62B0E94B40F2FEF04
:10587000E21AF20A6696D1CFEF92FF920F931F932E
:10588000CF93DF937C01FB018C0117550F3F11056E
:1058900011F008F03FC08091100190911101801724
:1058A000910724F410931101009310012281C80183
:1058B00066E170E00E94EB35EC01C95DDD4F288B9D
:1058C00092818E81992371F1FA86E9868F5F8E83AA
:1058D0000E946B2E9E878D870E94B70F8F830E9438
:1058E0008F0F88870E94A30F9885982B9887E8814F
:1058F000F981309759F02C893D89C80166E170E043
:105900000E94EB35B901835D9D4F0995F09292039A
:10591000E092910381E0DF91CF911F910F91FF9071
:10592000EF9008958823B1F38989882399F3C801FA
:1059300066E170E00E94EB35835D9D4F0E94B62BBF
:10594000E9CF8F929F92AF92BF92CF92DF92EF9268
:10595000FF920F931F93CF93DF93CDB7DEB72897B6
:105960000FB6F894DEBF0FBECDBF809110019091AD
:105970001101019609F061C028960FB6F894DEBFB8
:105980000FBECDBFDF91CF911F910F91FF90EF9090
:10599000DF90CF90BF90AF909F908F900895C801F7
:1059A00066E170E00E94EB35FC01E95DFD4FE288A5
:1059B000F388E114F10459F4D6012A2D1D922A9599
:1059C000E9F7B601818592850E94E6227C01C80133
:1059D00066E170E00E94EB35FC01E95DFD4F8681D8
:1059E0008823F1F0C80166E170E00E94EB35FC010C
:1059F000E95DFD4F858596850E94972EE816F9068C
:105A000078F4C40166E170E00E94EB358C01895D99
:105A10009D4F0E94982BC801835D9D4F0E94B62B1D
:105A2000B3940B2D10E08091100190911101480169
:105A3000801791070CF0B3CF9FCFB12C88E0A82E30
:105A4000CE0101966C01EDCF90934F0180934E01F2
:105A5000089590939803809397030895E091970396
:105A6000F0919803309721F00190F081E02D099496
:105A700080E00895E0919703F0919803309721F02A
:105A80000280F381E02D09940895DC01E0919703F1
:105A9000F0919803309739F082E08C930480F5817F
:105AA000E02DCD010994089520919503309196033E
:105AB0002817390771F09093960380939503E0912E
:105AC0009703F0919803309721F00680F781E02D3D
:105AD000099408952091930330919403281739076E
