:100000000C94FF000C9437010C9437010C943701C9
:100010000C9437010C9437010C9437010C94370180
:100020000C9437010C9437010C9437010C94211C6B
:100030000C94D11C0C946E170C9437010C9437015E
:100040000C9437010C9437010C9437010C94081868
:100050000C9437010C9437010C9437010C94370140
:100060000C9437010C9437010C9437010C94370130
:100070000C943701000000000000000000000000A8
:100080000000000000000000000000000000000070
:100090000000000000000000000000000000000060
:1000A0000000000000000000000000000000000050
:1000B0000000000000000000000000000000000040
:1000C0000000000000000000000000000000000030
:1000D0000000000000000000000000000000000020
:1000E0000000000014034D0069006E007400610000
:1000F0006B006100350030000000220353006300F4
:1001000061007400740065007200650064004400C2
:10011000720069006600740065007200000004034C
:10012000090409023B00020100A0FA0904000001D1
:10013000030101000921110100012240000705818E
:100140000308000109040100010300000009211156
:10015000010001224F000705820320000112010067
:1001600002000000081133122B01000102000105FA
:10017000010902A10185020901A10005091901294E
:10018000051500250195057501810295017503810D
:10019000010501093009311581257F950275088116
:1001A0000609381581257F950175088106050C0A19
:1001B00038021581257F950175088106C0C00501AB
:1001C0000906A101050719E029E715002501950891
:1001D000750181029501750881010507190029FF44
:1001E000150026FF009506750881000508190129EC
:1001F00005950575019102950175039101C01124C2
:100200001FBECFEFD4E0DEBFCDBF04B603FE18C0E3
:100210008091060290910702A0910802B091090214
:100220008730904BA740B04B59F4109206021092C1
:1002300007021092080210920902E0E0F8E3099523
:1002400011E0A0E0B1E0ECECFEE302C005900D92FD
:10025000AC32B107D9F722E0ACE2B1E001C01D92A7
:10026000A630B207E1F70E9408120C941D1F0C94EF
:10027000000081E0089581E008950C943B01089509
:100280000C943F011F93CF93DF9300D000D00F92C7
:10029000CDB7DEB749835A836B8330912F018981B3
:1002A0009A8131111DC06623B9F02223A9F00E9462
:1002B0006808182F682F89819A810E940A0869812D
:1002C0007A81812F0F900F900F900F900F90DF91F8
:1002D000CF911F910C946F0F0E943C08182FEFCF05
:1002E0000E94680869817A81EDCFFC01262F408148
:1002F00051816281738184810C94420181E008956F
:10030000CF93DF93D82FC92F60E00E9475016D2F26
:100310007C2FDF91CF910C9440010C94A4100C948D
:10032000A71008950E94EE050E9491012FEF84E32B
:100330009CE0215080409040E1F700C000000C9408
:100340002C180F931F93CF93DF93EC018B010E9426
:100350003D018823A9F1B801CE010E9431168823FE
:1003600079F1B801CE010E949F14882349F1B801A8
:10037000CE010E949B15882319F1F8018281882300
:1003800061F0CB35FDE5DF0721F170F4C115ECE537
:10039000DE07A1F0CF3DDC45C9F0C801DF91CF9168
:1003A0001F910F910C943901CC358DE5D807A1F040
:1003B000CD35DD4591F70E94FE0CEFCF0E949201F2
:1003C00080E0DF91CF911F910F9108950E94B20DAF
:1003D000F7CF0E94070DE1CF0E940A0DDECFCF9329
:1003E000DF93D82FC92F61E00E9475016D2F7C2FFC
:1003F000DF91CF910C94A1010E9452170C9414022A
:100400000E9417020C94561708950C94040281E080
:1004100008950C9407020895CF93C82F0E940502F7
:100420008C2FCF910C94090280E00C940C020E9456
:1004300090160C940C020E94901690912E01981721
:1004400021F080932E010C940C0208950F931F93BA
:10045000CF93DF93CDB7DEB72B970FB6F894DEBFFF
:100460000FBECDBF4F83588769877A878B8761110D
:100470000E94150C1E8225E0FE013796CE010196E2
:10048000DC0101900D922A95E1F72091E4018C01A5
:1004900022FD0CC00E94D60B882319F082E00E9436
:1004A000CD0C0E94BC0B81110E944C0C89819A8159
:1004B0002C813D81232B99F449815A816B817C8168
:1004C0008D819E810E94070B2B960FB6F894DEBF9C
:1004D0000FBECDBFDF91CF911F910F91089589235A
:1004E0008F3F51F3C8010E947E018111E5CFECCF0F
:1004F000FC01808191810C94AA08CF93C82F882396
:1005000069F18CEF8C0F813AA0F46C2F809102017D
:10051000909103010E94F416882329F08C2F0E94E9
:10052000AC0B0E945A0C8C2F0E94A50BCF910C94FF
:100530005A0C80E28C0F883048F4C77081E001C00B
:10054000880FCA95EAF70E94F60BF0CFCD3E30F047
:100550008C2F0E949512CF910C945C13CF9108952B
:10056000882361F19CEF980F913A20F40E94AC0B24
:100570000C945A0C90E2980F983050F4877091E0E8
:1005800001C0990F8A95EAF7892F0E94FC0BF0CFE2
:100590009BE5980F933020F490E080E00C94B61621
:1005A00098E5980F973120F490E080E00C94CC16F9
:1005B0008D3E20F00E94E7120C945C1308951F9367
:1005C000CF93DF93182FEB010E947D02209731F427
:1005D000812FDF91CF911F910C94B0028FE99FE0A2
:1005E0000197F1F700C000002197F0CF70E060E0C4
:1005F000893311F460E570E00C94DF02882321F068
:100600000E94F60B0C945A0C0895882321F00E9446
:10061000FC0B0C945A0C0895CF92DF92EF92FF924C
:100620000F931F93CF93DF9300D000D00F92CDB7DD
:10063000DEB77C016D837983FC01028115811295FF
:100640001F700E94EC0BD82E8823B9F0D02E002307
:10065000A1F08981807F803421F08D81805E883097
:10066000E8F18091E40182FD39C082E00E94CD0C66
:100670000E94EC0B91E0D82ED926C980C2948FE05D
:10068000C822F8E0CF1609F418C1FC1508F456C0CA
:1006900023E02C1528F18981807F39813F703983CF
:1006A00091E09C1508F05EC0803221F029812295EE
:1006B000207F29833D81332309F489C0313009F437
:1006C000D5C0002309F4DCC0112309F4B6C0F7013A
:1006D000858180FF5EC08F708583AFC0D12CCDCF68
:1006E000E5E0CE1609F4DEC0EC2DE850FF0B3497A0
:1006F00020F40E9490160E940C02DD2009F411C221
:100700000E94D20B80FD0DC2F70112820E94CC0B19
:100710000E94FA06C7010E94B6050E94CC0B0F90FA
:100720000F900F900F900F90DF91CF911F910F912D
:10073000FF90EF90DF90CF900C942B07F9E0CF164D
:1007400009F467C186E08C0D8F70823068F62D81C8
:10075000223F09F06FC189818F71011168C10E9428
:10076000FA06C2CF882321F019811295107F1983D0
:100770000023A9F00981002361F08D81805E88301B
:1007800018F01D81111107C089810E94F60B0E948B
:100790005A0C8D812BC089810E94070CF8CF8D8166
:1007A0000E94B0020981002309F49ECF8D81805EF2
:1007B000883018F01D81111104C089810E94FC0B42
:1007C00003C089810E940D0C0E945A0C8DCF80912C
:1007D000E40182FF17C0002361F00981002329F0A2
:1007E000802F0E94F60B0E945A0C80E00E947D022E
:1007F0007BCF80E00E94B0021981112309F474CFED
:10080000812FDCCF0023D9F0111107C00E94180CF2
:100810000981802B0E94FE0267CF113039F40E94BB
:10082000180C1981812B0E94340C5ECF153071F7A2
:100830000E944C0C89810E941E0C8981EBCF111102
:1008400006C00E944C0C89810E9405034DCF1130D7
:1008500049F40E94F30B1981812309F445CF0E94CA
:10086000270CEFCF153009F43FCFEBCF002321F059
:10087000163008F039CFE1CF153008F035CFE3CF8F
:10088000112309F30D81093349F41FEF27EE33E0FB
:10089000115020403040E1F700C000008D810E94DF
:1008A000B00222CF8D81002329F00E9495120E9470
:1008B0005C131ACF0E94E712FACF8981837009F086
:1008C00050C0011111CF2D81229526952770220F3E
:1008D000220F4D814F7050E070E060E0022E04C0A6
:1008E000440F551F661F771F0A94D2F70D8180E0D1
:1008F00090E0DC0104FF0FC08FE090E0A0E0B0E0EA
:1009000004C0880F991FAA1FBB1F2A95D2F7809594
:100910009095A095B09519811695169513701D8325
:100920008C019D01042B152B262B372B09831A8351
:100930002B833C831D8169817A818B819C8112305C
:1009400051F0133059F0113019F00E947006CCCEDE
:100950000E944806C9CE0E949806C6CE0E9446064E
:10096000C3CE002309F448C0098100FFBDCE2D810C
:10097000229526952770220F220F4D814F7050E04F
:1009800070E060E0022E04C0440F551F661F771F01
:100990000A94D2F70D8180E090E0DC0104FF0FC0E3
:1009A0008FE090E0A0E0B0E004C0880F991FAA1F7C
:1009B000BB1F2A95D2F780959095A095B095198187
:1009C0001695169513701D838C019D01042B152B14
:1009D000262B372B09831A832B833C831D81698146
:1009E0007A818B819C81123071F0133079F0113053
:1009F00039F00E94B90778CE198111FF75CEB7CFB3
:100A00000E94910771CE0E94E1076ECE0E94C4063B
:100A10006BCE19811F701983002329F0812F0E944A
:100A2000FA068D81F7CE8D810E94050389810E948F
:100A30002B075ACE2D81233F60F4203FC1F0213F88
:100A400089F0002309F45CC01111A3CE89818F7154
:100A500086CE3D81333FC9F0343F99F78091E40160
:100A600082FF1DC089818F71002309F378CE002396
:100A700041F0153008F038CE89818F710E946007EF
:100A800033CE163008F030CEF7CF002329F089811D
:100A90008F710E94D50628CE0E94D00625CE002355
:100AA000E9F00E94B90B0E94FC0B0E94D20B84302B
:100AB00041F40E94C40C89818F710E942B07D12CB4
:100AC00013CE1530E0F709810F710983802F0E9442
:100AD000FA0663E089810E94A70CF1CF0E94B90B4E
:100AE0000E94F60B153040F00E94C40C0E94270CA7
:100AF00064E089818F71EFCF81E00E94CD0CDFCF60
:100B0000112361F01D81193309F0C8CE2FEF37EEA4
:100B100083E0215030408040E1F7BECE89818F7163
:100B200086CF0F900F900F900F900F90DF91CF9185
:100B30001F910F91FF90EF90DF90CF9008950F934A
:100B40001F93CF93DF93EC01688179818A810E94A2
:100B5000B6088C010E9409080E944506B801CE0122
:100B6000DF91CF911F910F910C940C03CF93DF93E2
:100B7000EC01988189812B813C81232B19F08923F9
:100B80008F3F59F4DF91CF910895CE010E949F05C8
:100B9000CE01DF91CF910C948001CE010E94EF0134
:100BA0008111F3CF0E94EC0B882361F38A818823A3
:100BB00049F38091E40182FDE5CF82E0DF91CF919E
:100BC0000C94CD0C0E94150C0E945A0C0E9491149A
:100BD0000C945C130E94B30B0C94E2050E94040C6D
:100BE0000C94EA05282F92959F70963091F060F44E
:100BF000925F9F70923030F481E0203F81F030F4BA
:100C0000283E30F080E008959A5FF3CF243FD1F77B
:100C1000089581E0283EE0F3213FA1F7F9CF089540
:100C2000FC01808191810E94AA080C94F205CF9367
:100C3000DF9300D000D00F92CDB7DEB70F900F90AA
:100C40000F900F900F90DF91CF910895CF93DF9386
:100C500000D000D000D0CDB7DEB726960FB6F894FE
:100C6000DEBF0FBECDBFDF91CF91089508950C94E4
:100C700036060E943706609357017093580180939F
:100C8000590190935A010C94E20508950C94390689
:100C9000CF93DF9300D000D0CDB7DEB769837A83DE
:100CA0008B839C838091570190915801A0915901A9
:100CB000B0915A0129813A814B815C81282B392BD3
:100CC0004A2B5B2B29833A834B835C83CA01B9018E
:100CD0000F900F900F900F90DF91CF910C943906E9
:100CE000CF93DF9300D000D0CDB7DEB769837A838E
:100CF0008B839C838091570190915801A091590159
:100D0000B0915A0129813A814B815C812823392392
:100D10004A235B2329833A834B835C83CA01B9014D
:100D20000F900F900F900F90DF91CF910C94390698
:100D3000CF93DF9300D000D0CDB7DEB769837A833D
:100D40008B839C838091570190915801A091590108
:100D5000B0915A0129813A814B815C81282739273A
:100D60004A275B2729833A834B835C83CA01B901F5
:100D70000F900F900F900F90DF91CF910C94390648
:100D80000C9436060C94C0060E94C2066093530170
:100D90007093540180935501909356010C94E20591
:100DA00060E070E0CB010C94C4060F931F93CF93C7
:100DB000DF9300D000D0CDB7DEB741E050E060E077
:100DC00070E08A019B0104C0000F111F221F331F16
:100DD0008A95D2F709831A832B833C83C901B80112
:100DE0000F900F900F900F90DF91CF911F910F9167
:100DF0000C94C4060F931F93CF93DF9300D000D0C1
:100E0000CDB7DEB741E050E060E070E004C0440FD1
:100E1000551F661F771F8A95D2F7809153019091D5
:100E20005401A0915501B09156018A019B01082BF4
:100E3000192B2A2B3B2B09831A832B833C83C90153
:100E4000B8010F900F900F900F90DF91CF911F91ED
:100E50000F910C94C4060F931F93CF93DF9300D090
:100E600000D0CDB7DEB741E050E060E070E004C0F4
:100E7000440F551F661F771F8A95D2F740955095EE
:100E8000609570958091530190915401A091550106
:100E9000B09156018A019B01082319232A233B2381
:100EA00009831A832B833C83C901B8010F900F90EB
:100EB0000F900F90DF91CF911F910F910C94C4066A
:100EC0000F931F93CF93DF9300D000D0CDB7DEB741
:100ED00041E050E060E070E004C0440F551F661F21
:100EE000771F8A95D2F78091530190915401A09178
:100EF0005501B09156018A019B01082719272A271D
:100F00003B2709831A832B833C83C901B8010F90C7
:100F10000F900F900F90DF91CF911F910F910C9434
:100F2000C406CF93DF9300D000D0CDB7DEB769837E
:100F30007A838B839C838091530190915401A0917B
:100F40005501B091560129813A814B815C81282B52
:100F5000392B4A2B5B2B29833A834B835C83CA0151
:100F6000B9010F900F900F900F90DF91CF910C94DB
:100F7000C406CF93DF9300D000D0CDB7DEB769832E
:100F80007A838B839C838091530190915401A0912B
:100F90005501B091560129813A814B815C8128230A
:100FA00039234A235B2329833A834B835C83CA0119
:100FB000B9010F900F900F900F90DF91CF910C948B
:100FC000C406CF93DF9300D000D0CDB7DEB76983DE
:100FD0007A838B839C838091530190915401A091DB
:100FE0005501B091560129813A814B815C812827B6
:100FF00039274A275B2729833A834B835C83CA01BD
:10100000B9010F900F900F900F90DF91CF910C943A
:10101000C4060895382F892F262F6EE00E94861E61
:10102000830F982F977041E001C0440F9A95EAF71B
:1010300086958695869590E065E070E00E948F1E0B
:10104000FC01E05DFE4F90E080E0622F70E0519186
:10105000DF0111979B01082E02C0369527950A944F
:10106000E2F7217021952527242325272C9301962B
:101070008530910561F70895282F892F6EE00E9431
:10108000861E820FA82FA77086958695869590E07C
:1010900065E070E00E948F1EFC01E05DFE4F50E0B5
:1010A00040E080E0219130E00A2E02C0369527957D
:1010B0000A94E2F721703327042E01C0220F0A940C
:1010C000EAF7822B4F5F5F4F4530510559F708957E
:1010D000BF92CF92DF92EF92FF920F931F93CF9325
:1010E000DF938C01C0905301D0905401E0905501E2
:1010F000F09056018091570190915801A0915901AB
:10110000B0915A01C82AD92AEA2AFB2ACFE1D0E0B5
:10111000BC2ED701C6010C2E04C0B695A795979595
:1011200087950A94D2F780FD0EC0219788F7B12CDD
:101130008B2DDF91CF911F910F91FF90EF90DF905A
:10114000CF90BF900895B8018C2F0E94890F01970E
:1011500061F3EECFCF93DF93D82FC92F0E94680899
:101160006D2F7C2FDF91CF910C94890F1F93CF931C
:10117000DF93162FD72F90912F01992339F0862FC7
:10118000972FDF91CF911F910C94AA08882391F09B
:10119000862F972F0E946808C82F682F812F9D2FB8
:1011A0000E940A08612F7D2F8C2FDF91CF911F9114
:1011B0000C94890F862F972F0E943C08C82FF2CFDE
:1011C000CF93DF93C0915B0180915C018C1303C0CE
:1011D000DF91CF910895D0E0CE0166E070E00E94EB
:1011E0008F1EFC01E35AFE4F408151816281738161
:1011F000848195810E9426062196C770E5CF409193
:101200008D0150918E0160918F01709190018091BC
:101210009101909192010C942606FF920F931F93D7
:10122000CF93DF9380919201807FC1F480918F01F1
:101230008823A1F020915B0100915C0110918D0148
:1012400040918E01A0919001B0919101F42EF12274
:10125000C0910001D0910101021306C0DF91CF912E
:101260001F910F91FF90089530E0109719F08FEFC4
:10127000F81204C02F5F3F4F2770EECFC90166E020
:1012800070E00E948F1EFC01E35AFE4F81814813DB
:10129000F1CF80818113EECF82818111EBCF8381E9
:1012A00094818A1B9B0B8C179D0720F780919201DC
:1012B0008F70806180939201C90166E070E00E94A6
:1012C0008F1EFC01EE59FE4F90819F7090619083BC
:1012D0008DE891E00E94B605DF91CF911F910F91AB
:1012E000FF900C94E008AF92BF92CF92DF92EF9202
:1012F000FF920F931F93CF93DF93CDB7DEB72B975A
:101300000FB6F894DEBF0FBECDBF8C0185E0F801AB
:10131000DE01179601900D928A95E1F7F801E280BF
:10132000C380D4808DE8A82E81E0B82E20918D0155
:1013300090918E014091900150919101411551057C
:1013400029F0892F82238F3F09F04AC1EE2009F44A
:101350005AC1C8010E941006F82E882309F453C10F
:1013600086E0F801ADE8B1E001900D928A95E1F7D1
:101370008DE891E00E9478020E940D0901C18091E0
:101380009201382F307F4617570708F0A9C0F8019F
:1013900041813111E1C0FE2C491325C09081921387
:1013A00022C0E11020C08F708061809392010E9462
:1013B000FF088DE891E00E94B60580919201F80146
:1013C00085838F2D2B960FB6F894DEBF0FBECDBF51
:1013D000DF91CF911F910F91FF90EF90DF90CF9011
:1013E000BF90AF900895AF81CD2829F0842F8A2334
:1013F0008F3F09F0AEC080E0F82FF170DF2E209112
:101400005B01B0915C0180FD1EC0EE20D1F28091A5
:101410009201816080939201F12CD3CF30E0C90119
:1014200066E070E00E948F1EFC01E35AFE4F81814E
:10143000481306C080818A1303C08281E812E5CF79
:101440002F5F3F4F27702B13E9CF8F8198850E9424
:10145000AA08292F22952F70903260F0225F2F70FA
:10146000223078F49F7051F0F8019581907F31F42B
:10147000D12C0AC09F7011F08823D1F3805E883090
:10148000B8F3C8010E94B605FD2C9BCFC8010E948D
:101490001006882309F4B7C0EE2009F4B4C0809187
:1014A0009201803270F020918D0130918E013A834B
:1014B00029831B82DD82CC828E83CE0101960E941D
:1014C000B60586E0F801ADE8B1E001900D928A958D
:1014D000E1F70E940D090E94FF08FF24F39471CFE9
:1014E000311151C04F81588569857A858B850E945D
:1014F00017068DE891E00E94B60586E0F50111928D
:101500008A95E9F70E94FF0887CF86E0F801ADE8E9
:10151000B1E001900D928A95E1F753CFC8010E9486
:1015200010068111CECF809192018160809392014B
:10153000C8010E94B60545CF4F81588569857A85D7
:101540008B850E94170686E0F50111928A95E9F7CE
:1015500017C081E08E2550CF491398CFF8019081B4
:10156000921394CFE11092CF8583C8010E94B605F3
:1015700086E0F801ADE8B1E001900D928A95E1F7BF
:101580000E94FF081ECFF801318193137FCFF8012D
:10159000908192137BCFE11079CF8583C8010E949F
:1015A000B60586E0F50111928A95E9F70ACFF801B0
:1015B00081819813B3CFF80180818213AFCF8091DE
:1015C000920180FDA2CF982F907F09F49ECF858352
:1015D000903F59F2982F907F905F8F70892BC4CFE6
:1015E000F0908F01B601641B750BAB016091000197
:1015F00070910101F110C3CE4617570708F09CCF38
:10160000FE2CE110D4CFC8010E94B60566CFCF935F
:10161000DF93CDB7DEB72C970FB6F894DEBF0FBEC1
:10162000CDBF4F83588769877A878B879C87CE0188
:1016300007960E9473098823D1F08A859B85892BA0
:1016400039F058854F81852F84238F3F09F076C06C
:1016500080915B0190915C01891349C02C960FB673
:10166000F894DEBF0FBECDBFDF91CF91089586E025
:10167000FE013796DE01119601900D928A95E1F7F1
:101680009F81288580915C0140915B016A857B8503
:10169000672BF1F292239F3FD9F290E09C012F5FDC
:1016A0003F4F277033274217130671F40E94EE054F
:1016B00010925C0110925B0186E0EDE8F1E0DF0141
:1016C0001D928A95E9F7C4CF66E070E00E948F1EF4
:1016D000DC01A35ABE4F86E0FE01319601900D92C7
:1016E0008A95E1F720935C010E94E008B1CF90E079
:1016F00066E070E00E948F1E835A9E4F0E9473091D
:10170000882309F4ABCF80915B0190E066E070E044
:101710000E948F1EFC01E35AFE4F4081518162817D
:101720007381848195810E94260680915B0190E0FF
:1017300001968770992780935B018ACF69857A85A6
:101740008B859C850E94260683CF682F809102019D
:10175000909103010C942E17682F809102019091B3
:1017600003010C94301780910201909103010C94B5
:1017700032178091A00108950E94CD1720919E01FB
:1017800030919F01AC01421B530B9A0181E0283834
:10179000334108F480E0089580919D0185958595F9
:1017A0008595089580919D01877008950E94CD17B9
:1017B00020919B0130919C01821B930B88389341AF
:1017C00048F080919D0182FB882780F991E089276C
:1017D0008170089580E0FCCF90919D01977081E029
:1017E00009F480E008958091AB0108959091AB01D8
:1017F000982B9093AB010895982F90958091AB0111
:1018000089238093AB0108951092AB0108959091C4
:10181000AA01982B9093AA010895982F90958091F2
:10182000AA0189238093AA0108951092AA0108951C
:101830008091A101089508950C941B0C9091A00132
:10184000981721F08093A0010C941C0C08958091AE
:10185000A001882329F01092A00180E00C941C0CB8
:10186000089508950C94310CCF93C82F8091E40112
:1018700082FD10C08091A1018C1761F00E94CD17EC
:1018800090939F0180939E01C093A1018C2FCF91D3
:101890000C94320CCF9108958091A101882349F0D6
:1018A0001092A10110929F0110929E0180E00C9471
:1018B000320C0895CF93DF93E0910201F091030180
:1018C0008091AB018083E0910201F091030180815E
:1018D0009091AA01892B80838091A1018823B9F07E
:1018E0000E94BC0B81110E944C0CE0910201F0910E
:1018F000030180819091A101892B80838091020155
:10190000909103010E94E21681110E944C0CC0913B
:101910000201D091030148E050E063E971E0CE019B
:101920000E94CE1E892B69F088E0FE01A3E9B1E098
:1019300001900D928A95E1F7CE01DF91CF910C9441
:101940009C16DF91CF91089508950C94A40C962FC6
:101950002091E40122FD16C0682F660F660F660F06
:10196000692B60939D010E94FA060E94CD17909307
:101970009C0180939B0180919D018595859585951E
:101980000C94A50C0C94FA0610929D0110929C01E7
:1019900010929B0180E00C94A50C90919D01809584
:1019A000892380939D01282F277091F4282F082EDA
:1019B000000C330B9217130659F09091E40192FD3D
:1019C00007C08595859585950E942B070C94C40CBE
:1019D00008959091E40192FB222720F9281769F0DD
:1019E00080FB92F99093E4018091E3019091E401EE
:1019F0000E942E0D82E00C94CD0C08958091E4019C
:101A000082FB882780F991E089270C94E90C81E01A
:101A10000C94E90C80E00C94E90C90E080E00E94CA
:101A2000E31E9C0181E0293E3E4F09F080E00895CD
:101A300082E090E00C94DB1E83E090E00C94DB1ECF
:101A4000CF9384E090E00E94DB1EC82F82E290E0FA
:101A50000E94DB1E982F8C2FCF910895CF93682F73
:101A6000C92F84E090E00E94E91E6C2F82E290E092
:101A7000CF910C94E91EAB01BC018FE090E00C9477
:101A8000FB1EAB01BC0183E190E00C94FB1E60E007
:101A900070E0CB010C94410D60E070E0CB010E943E
:101AA0003B0D0C94470D69EE7EEF90E080E00E94C4
:101AB000071F60E082E090E00E94E91E60E083E0A2
:101AC00090E00E94E91E1092570110925801109266
:101AD000590110925A0160E084E090E00E94E91EF2
:101AE00060E082E290E00E94E91E60E085E090E024
:101AF0000E94E91E60E086E090E00E94E91E6FEF20
:101B000087E090E00E94E91E40E050E0BA0188E0E2
:101B100090E00E94FB1E60E08DE090E00E94E91ED4
:101B200040E050E0BA0188E190E00E94FB1E60E0D6
:101B300087E190E00E94E91E40E050E0BA018CE1AC
:101B400090E00E94FB1E70E060E080E290E00E9466
:101B5000071F40E050E0BA0188E190E00E94FB1EC0
:101B60000C944C0D0C94530D682F8EE090E00C9467
:101B7000E91E0E94D9176093B8017093B901809350
:101B8000BA019093BB016093B4017093B501809347
:101B9000B6019093B7010895089508950C94CD0D62
:101BA00008950C94D00D88E690E10E9486160E945C
:101BB000CC0D0C94CE0D81E008950C94DB0D0895AE
:101BC00008950E94DF0D0C94E00D0E946B100C94A0
:101BD0000B020E94C4170E945F110E94E50D0C9435
:101BE000D10D7F928F929F92AF92BF92CF92DF9250
:101BF000EF92FF920F931F93CF93DF9300D000D00B
:101C00000F92CDB7DEB70E947411B82E81110E94D9
:101C1000B90D5CEA852E51E0952E10E000E0702EA3
:101C2000802F0E94A9107C01F401C190D1904F0136
:101C3000C816D90609F452C08091BC0181FD0E94EA
:101C4000B210C6018E259F25A12CCC24C394D12C83
:101C50009C012C213D21232BD9F10E94DD0D8823ED
:101C6000A9F0A9827A82EC20FD2081E0EF2809F416
:101C700080E08B830E94CD178160782F9D838C83B9
:101C800049815A816B81892F0E942602000F111F02
:101C9000F801E455FE4F808191818C259D2591832B
:101CA000808381E0B11001C080E00F900F900F9011
:101CB0000F900F90DF91CF911F910F91FF90EF90B8
:101CC000DF90CF90BF90AF909F908F907F900895BE
:101CD000A394CC0CDD1CFEE0AF12BACF0F5F1F4FF8
:101CE0000430110509F09BCF8FEF89838A831B8213
:101CF0000E94CD178160782F9D838C8349815A8102
:101D00006B81892F0E942602CCCF0E94F10D0E9488
:101D100076130C941B02CF93DF930E948D0FEC017E
:101D20008115924508F054C0C11581E5D80708F027
:101D3000A7C0CF3FD10509F0E8F4CD3ED10508F0AA
:101D40009AC0C53AD10570F4C430D10538F481E0A9
:101D5000219709F080E0C82F90E0D92FCE01DF91C4
:101D6000CF910895CE01805E91090897B8F3D0E035
:101D7000C0E0F4CFC11520E5D20758F4C11580E4C6
:101D8000D80708F07AC0CE019A9581159F4130F3AB
:101D9000EECF9E01A4E036952795AA95E1F7237032
:101DA0008C2F86958695837090E0B5E0880F991FFB
:101DB000BA95E1F7922BC37021E030E002C0220F08
:101DC000331FCA95E2F7822B932BEC01DC68C6CF58
:101DD000C11586E5D80740F5C11595E5D90708F086
:101DE00065C0C11524E5D207D0F48C2F8695869561
:101DF0009E0123703327C115D34508F046C0C1E0CA
:101E0000D0E002C0CC0FDD1F2A95E2F790E0F5E0AC
:101E1000880F991FFA95E1F7C82BD92BD7CFDC2F64
:101E2000CC27C46FD06A9ACFC1152AE5D20788F4AF
:101E3000C11589E5D80708F044C0CE0198558F3FF9
:101E4000910511F008F093CFDC2FCC27C06FD06A3A
:101E500085CFCE0190568115904208F088CF8D2F06
:101E60008F710E94251090E0982F882788279F71F6
:101E70008C2BEC0124C0D06571CFDF70D06A6ECF9F
:101E8000DC2FCC27C16FD06A69CFC1E0D0E002C09F
:101E9000CC0FDD1F2A95E2F790E065E0880F991FCF
:101EA0006A95E1F7C82BD92BDA6858CF8C2F0E949E
:101EB0002510C82FD0E0DC2FCC27CC27DF71D062D3
:101EC0004DCF8C2F8F700E94251034E0D695C7958A
:101ED0003A95E1F7CF709C2FEC01D0693FCF282FC6
:101EE000362F872F90E06EE070E00E948F1EFC017D
:101EF000E30FF11D822F90E068E370E00E948F1ED7
:101F0000E80FF91FEE0FFF1FEC58FF4F85919491DA
:101F100008950E946F0F0C948B0E803E910599F1ED
:101F2000C8F48133910509F476C048F489329105EB
:101F300009F46AC08A32910509F474C0089589339E
:101F40009105D1F082389105B9F08533910509F4F6
:101F500054C00895843E910599F138F4823E91056C
:101F6000F9F0833E910509F10895863E910599F1B6
:101F7000873E9105B9F108952091E3012370A1F006
:101F800080EE90E008952091E30120FD52C0309151
:101F9000E40130FF09C024FF4FC090E080E004C09E
:101FA0002091E30122FDF7CF08952091E30122FD66
:101FB00046C03091E40130FDE3CF24FFF5CFEDCFF3
:101FC0002091E40121FFF0CF8091E30184FDE5CF72
:101FD00087EE90E008952091E30123FFE5CF24FDF3
:101FE000DCCFF6CF2091E30123FD2CC03091E4013A
:101FF00031FFE3CF84EE90E008952091E30125FFC7
:10200000D3CF89E290E008952091E30125FFCCCF62
:1020100085E390E008952091E30126FFC5CF8AE291
:1020200090E008952091E30126FFBECF81E390E088
:10203000089589E390E0089583EE90E0089582EE9C
:1020400090E0089586EE90E008959091E30192FF6C
:1020500006C0282F28712830F9F4877F846093FF09
:1020600006C0282F28712831F1F4877E84612091E1
:10207000E40120FF06C0382F38713830D9F4877F4B
:10208000816021FF06C0282F28712831D1F4877E76
:10209000816194FD877E0895282F24712430F9F6FC
:1020A0008B7F8860DCCF282F2471243101F78B7E51
:1020B0008861DDCF382F3171313019F78E7F88601C
:1020C000E0CF282F2171213121F78E7E8861E1CF69
:1020D00080E008950895CF93DF9300D000D0CDB76E
:1020E000DEB70E940D0D811102C00E94B20D0E9448
:1020F000180D8093BC010E94200D9093E401809301
:10210000E3010E946A100E941C0D282F30E050E06D
:1021100040E0CA01B9010E944606809153019091A6
:102120005401A0915501B091560189839A83AB83E4
:10213000BC83BC01CD010F900F900F900F90DF91E9
:10214000CF910C94C20608950C94A31008950C949A
:10215000A610E82FF0E0EE0FFF1FE351FE4F808145
:1021600091810895089580EA8A95F1F7089500C055
:1021700008950C94B310F894E82FE295EF70F0E016
:1021800041A18F7021E030E0B90102C0660F771FD6
:102190008A95E2F7CB01962F9095942391A392A173
:1021A000892B82A378940895CF93DF9382E60E94CF
:1021B000BB1080E90E94BB1081E90E94BB1082E93C
:1021C0000E94BB10C9E1D1E089918F3F11F00E94BC
:1021D000BB1081E0C732D807B9F7DF91CF910895DE
:1021E000AF92BF92DF92EF92FF920F931F93CF9324
:1021F000DF93EC01D62E062F10E0C801895D9E4FBB
:102200007C01FC0180818F3F09F44FC0F894E82FD6
:10221000E295EF70F0E091A18F7021E030E001C015
:10222000220F8A95EAF7892F822B81A382A120951C
:10223000282322A378940E94B710E9E1F1E067E235
:1022400071E041E050E0B12CA12C21912F3F81F0B1
:10225000A22FA295AF70A05EB0E08C9190E02F709D
:1022600002C0959587952A95E2F79A0180FF02C0F2
:1022700020E030E0A22AB32A440F551F6E177F07D3
:1022800021F7F70180818F3F11F00E94BB1061E0C0
:10229000A114B10409F460E08D2D0E94B910000F63
:1022A000111FC00FD11FB982A882DF91CF911F915A
:1022B0000F91FF90EF90DF90BF90AF9008950E9434
:1022C000D41088E0EDEEF1E0DF01982F1D929A9591
:1022D000E9F7E5EEF1E0DF011D928A95E9F784E088
:1022E0000E94C2110C948D01FF920F931F93CF9304
:1022F000DF93CDB7DEB728970FB6F894DEBF0FBED9
:10230000CDBFFE01319688E0DF011D928A95E9F785
:1023100010E0FE2E0F2F612F8F2D902F0E94F010B6
:102320001F5F1430C1F748E050E06F2D702F85EE2D
:1023300091E00E94CE1E9C0111E0892B09F410E06F
:10234000232B49F088E0EF2DF02FA5EEB1E00190AE
:102350000D928A95E1F7212F44E06DEE71E085EE54
:1023600091E00E94C3110E948F01812F28960FB621
:10237000F894DEBF0FBECDBFDF91CF911F910F91BB
:10238000FF9008950895FF920F931F93CF93DF93CB
:10239000F82E092F162FD72FC42F222349F081E0C2
:1023A0008093BF010E94CD179093BE018093BD0121
:1023B0008091BF018823A1F08091BD019091BE0161
:1023C0000E94F917059760F0EF2DF02FA12FBD2F78
:1023D00090E080E0D0E08C179D0744F01092BF01A0
:1023E000DF91CF911F910F91FF900895219131912D
:1023F0002D933D930196EFCF0E949B190E94E90D0A
:102400000C94A7190E94AB190E94850E0C94C51953
:102410000E946D170E9482190E94D30D0E94FC1128
:102420000E9402120E94E10DFBCF8091C60180FF45
:102430000DC06091090170E0660F771F603871056B
:10244000A8F561157105A1F1862F089581FF08C0D7
:102450006091090170E0660F771F660F771FEECF5E
:102460006091090170E082FD0BC08091C501882355
:10247000D1F0209108016091090170E0821730F0DD
:1024800043E0660F771F4A95E1F7D8CF90E00E94AE
:102490008F1E33E0880F991F3A95E1F7622F70E0A5
:1024A0000E94A01ECBCF68E070E0CECF8FE70895EA
:1024B00081E008958091C60180FF0CC06091050104
:1024C00070E075956795759567956115710559F17A
:1024D000862F089581FF06C06091050170E0759513
:1024E0006795F3CF6091050170E082FD0CC06091AB
:1024F000C4016623A9F0209104018091050190E0B8
:10250000621730F0BC0160387105F8F28FE708956A
:1025100070E00E948F1E622F70E00E94A01EF3CF19
:1025200061E070E0D5CF81E008958D5E833108F0E1
:1025300045C0E82FF0E0E15EF04E0C94B41E0E941E
:10254000151281958093CA0108950E941512FACF41
:102550000E94151281958093C90108950E94151259
:10256000FACF0E945A128093CB0108950E945A120A
:102570008195F9CF0E945A1281958093CC010895DC
:102580000E945A12FACF8091C80181608093C801DD
:1025900008958091C8018260F9CF8091C80184605C
:1025A000F5CF8091C8018860F1CF8091C80180612A
:1025B000EDCF8091C60181608093C601089580911E
:1025C000C6018260F9CF8091C6018460F5CFE82F03
:1025D0003091CA012091C9019091CB018091CC0129
:1025E000ED3EA1F437FD1092CA018091C90190918E
:1025F000CA01892B11F41092C5018091CB019091F1
:10260000CC01892B11F41092C4010895EE3E19F407
:1026100013164CF3EACFEF3E29F427FFE6CF1092D2
:10262000C901E3CFE03F19F41216CCF3DECFE93F46
:1026300029F41916D4F61092CB01D7CFEA3F19F43A
:1026400097FFD3CFF8CFEB3F29F487FFCECF10927F
:10265000CC01CBCFEC3F19F41816CCF3C6CFE15F19
:10266000EF3008F0C2CFF0E0EE5CF04E0C94B41EF8
:102670008091C8018E7F8093C801B7CF8091C80137
:102680008D7FF9CF8091C8018B7FF5CF8091C801F4
:10269000877FF1CF8091C8018F7EEDCF8091C601F9
:1026A0008E7F8093C601A1CF8091C6018D7FF9CF27
:1026B0008091C6018B7FF5CF0E94CD172091C90173
:1026C0003091CA01232B21F08093C2019093C30162
:1026D0002091CB013091CC01232B21F08093C001BC
:1026E0009093C10187EC91E00C94A716CF92DF92F2
:1026F000EF92FF920F931F93CF93DF9300D000D000
:1027000000D0CDB7DEB726E0E7ECF1E0CE010196D0
:10271000DC0101900D922A95E1F7C090C901D0909B
:10272000CA01E090CB01F090CC011092C901109247
:10273000CA011092CB011092CC012C2D2D298C01B5
:1027400091F08091C2019091C3010E94F917FC01A0
:102750002091C501222309F440C080910A018E17FF
:102760001F0608F449C08E2D8F2991F08091C00179
:102770009091C1010E94F917FC012091C40122230C
:1027800009F47DC0809106018E171F0608F486C0EB
:102790008091C9019091CA01892B9091CB01892B1D
:1027A0009091CC01892B11F00E945C1386E0F80116
:1027B000A7ECB1E001900D928A95E1F726960FB64D
:1027C000F894DEBF0FBECDBFDF91CF911F910F9167
:1027D000FF90EF90DF90CF90089580910B0190E0F3
:1027E0006AE070E00E948F1E8E179F0708F0BBCF33
:1027F0002F5F2093C50102C02F3FD1F7CC2051F0AD
:102800000E9415126FEF1C140CF461E00E94861EEA
:102810008093C901DD2051F00E9415126FEF1D1445
:102820000CF461E00E94861E8093CA018091C90168
:10283000882309F498CF2091CA01222309F493CF69
:10284000082E000C990B65EB70E00E948F1E9923F7
:1028500071F09093C901822F220F990B65EB70E004
:102860000E948F1E992339F09093CA017CCF81E09A
:102870008093C901F0CF81E08093CA0174CF809129
:10288000070190E06AE070E00E948F1E8E179F079C
:1028900008F07ECF2F5F2093C40102C02F3FD1F7F5
:1028A000EE2051F00E945A126FEF1E140CF461E0FA
:1028B0000E94861E8093CB01FF2051F00E945A1285
:1028C0006FEF1F140CF461E00E94861E8093CC0110
:1028D0008091CB012091CC01882309F459CF222388
:1028E00009F456CF082E000C990B65EB70E00E949E
:1028F0008F1E992371F09093CB01822F220F990B99
:1029000065EB70E00E948F1E992339F09093CC0103
:102910003FCF81E08093CB01F0CF81E08093CC0169
:1029200037CF86E0E7ECF1E0DF011D928A95E9F709
:102930001092C5011092C4011092C6010895CF9360
:10294000DF93EC01FB018281882309F4F2C0C236D7
:10295000FDE5DF0749F048F5C631ECE5DE07E0F4B8
:10296000C230FCE5DF07F0F00E94200D9093E401F7
:102970008093E301C631ECE5DE0748F5C230FCE5A3
:10298000DF07C0F48091E3019091E4010E942E0DD5
:102990000E94EE0580E006C09E012B5F3C45293079
:1029A000310510F3DF91CF910895C63A9DE5D9071F
:1029B000C9F7DACFFE01E350FC458091E301816065
:1029C000E331F10528F5EF5BF04E0C94B41EC430F2
:1029D0008DE5D80770F4CB3F9CE5D90798F2FE014E
:1029E000EC5FFC45E830F10510F5EC5AF04E0C9424
:1029F000B41EC236EDE5DE0709F494C09091E30100
:102A0000892F8E7F90FF8160C63ADD4509F0BACFED
:102A10008093E301B7CF8091E3018260F9CF809189
:102A2000E3018460F5CF8091E3018860F1CF80916C
:102A3000E40181608093E401A5CF8091E40182608C
:102A4000F9CF8091E3018061E3CF8091E30180625F
:102A5000DFCF8091E3018064DBCF0E94EE0580919F
:102A6000E3018068D5CF8091E3018C60D1CF809164
:102A7000E4018360DFCF8091E3018E7FC9CF809135
:102A8000E3018D7FC5CF8091E3018B7FC1CF809122
:102A9000E301877FBDCF8091E4018E7FCBCF809112
:102AA000E4018D7FC7CF8091E3018F7EB1CF80910C
:102AB000E3018F7DADCF8091E3018F7BA9CF0E9491
:102AC000EE058091E3018F77A3CF8091E301837FAF
:102AD0009FCF8091E4018C7FADCF8091E30182FB99
:102AE000992790F921E0922790FB82F990FB83F9D6
:102AF0008FCF8091E401982F909591708E7F892BD4
:102B000090FB81F997CF0E94EE059091E301892F08
:102B100097FB87F980587CCF81E00E94B40D32CFBB
:102B200080E0FBCF9091E301892F8F7E94FF80613D
:102B30006FCF81E037CFCF93DF93EB0186319C4598
:102B400011F50E94F30B9A81992399F08A7A91E00A
:102B500009F490E09093CD01811109C089E20E94AF
:102B6000A50B0E945A0C80E0DF91CF91089585E378
:102B7000F6CF8091CD01811104C089E20E94AC0B97
:102B8000F0CF85E3FBCF81E0EFCF0F931F93CF937F
:102B9000DF93C42FD22FFC0182818823C9F0409398
:102BA000D0010E94CD179093CF018093CE0180E297
:102BB0008C0F883008F050C0C77081E001C0880FCA
:102BC000CA95EAF7DF91CF911F910F910C94FE0205
:102BD0001091D001141335C08091CE019091CF0196
:102BE0000E94F917883C910560F5C0E2CD0F1D17D2
:102BF000B9F080E2810F883040F4177081E001C0A5
:102C0000880F1A95EAF70E940503C83048F481E05E
:102C10009D2F977001C0880F9A95EAF70E94FE02D7
:102C2000802F0E94F602C830B8F4D77081E001C04E
:102C3000880FDA95EAF7DF91CF911F910F910C94ED
:102C4000050380E28C0F883038F4C77081E001C042
:102C5000880FCA95EAF7EFCFDF91CF911F910F91BF
:102C600008950F939C01CB01243F4CE53407A1F15B
:102C700090F4293DFCE53F0749F12A3D4CE5340736
:102C8000E9F1283D3C45C1F0FC0182818823E1F156
:102C90001092D00119C0263FFCE53F0719F1273FEC
:102CA0004CE5340729F1253F3C4571F707E225EE55
:102CB00044EE65EF7CE505C006E221EE41EE68EDED
:102CC0007CE50E94C51580E00F91089507E225EE8E
:102CD00045EE69ED7CE5F5CF06E221EE40EE64EFCE
:102CE0007CE5EFCF06E221EE42EE66EF7CE5E9CF30
:102CF00007E225EE46EE67EF7CE5E3CF08E221E050
:102D000045EE6AED7CE5DDCF81E0DECF90932D01CD
:102D100080932C0108959093D6018093D501089556
:102D2000E091D501F091D601309721F00190F0812A
:102D3000E02D099480E00895E091D501F091D6014D
:102D4000309721F00280F381E02D09940895DC0191
:102D5000E091D501F091D601309739F082E08C9363
:102D60000480F581E02DCD01099408952091D301CF
:102D70003091D4012817390771F09093D4018093D2
:102D8000D301E091D501F091D601309721F0068072
:102D9000F781E02D099408952091D1013091D2015D
:102DA0002817390771F09093D2018093D101E091F7
:102DB000D501F091D601309721F00084F185E02D06
:102DC00009940895AC019C012E5F3F4F485F5F4F0F
:102DD00080E02417350709F40895F90191919F01C6
:102DE0009923B9F38F5FF5CF9C01662351F0FC0165
:102DF0003296285F3F4F8191861729F0E217F3073B
:102E0000D1F780E0089581E008959C01FC0132969D
:102E10008FEF90E04191461751F08F3F19F4411127
:102E200001C0892F9F5F9630A9F78F3F09F408955D
:102E3000280F311D87FD3A95F901628308959C01A1
:102E4000FC013296285F3F4F8191861303C0DF015A
:102E500011971C92E217F307B9F708950C94051720
:102E60000C941F17FC01329686E0DF011D928A95B3
:102E7000E9F7089508950C943A178F5F8093D7016E
:102E80000C943B1783E08093D7010C943B170C9470
:102E90003D1781E08093D7010C943B170C944917A0
:102EA000089508950C945117089508950C9450179F
:102EB000CF930E9454170E9474110E945517C0E0CE
:102EC0008C2F0E94A910892B31F4CF5FC430C1F739
:102ED00080E0CF91089581E0FCCF08951F921FB646
:102EE0001F9211248F939F93AF93BF938091D8012A
:102EF000811113C08091F5019091F601A091F70125
:102F0000B091F8014196A11DB11D8093F5019093F8
:102F1000F601A093F701B093F801BF91AF919F9193
:102F20008F911F901FBE1F9018958091FD018430D6
:102F300031F10E94FC011092D80188E190E020E478
:102F40000FB6F894A895809360000FBE20936000A0
:102F500083B7817F846083BF83B7816083BF7894A8
:102F6000889583B78E7F83BF0FB6F894A89580911C
:102F70006000886180936000109260000FBE089529
:102F80000E94EE050C94000282E084BD93E095BDA2
:102F90009AEF97BD80936E0008952FB7F8948091B3
:102FA000F5019091F601A091F701B091F8012FBFC2
:102FB0000895CF93DF9300D000D0CDB7DEB78FB7A1
:102FC000F8942091F5013091F6014091F70150916C
:102FD000F80129833A834B835C838FBF69817A81AF
:102FE0008B819C810F900F900F900F90DF91CF916C
:102FF00008959C014FB7F8948091F5019091F601E6
:10300000A091F701B091F8014FBF821B930B089577
:1030100078941F921FB61F9211248F939F93AF93A2
:10302000BF938091F5019091F601A091F701B091C5
:10303000F8010196A11DB11D8093F5019093F60151
:10304000A093F701B093F801BF91AF919F918F9139
:103050001F901FBE1F90189581E08093E00080E2D2
:103060008093D8001092C9008FE19EE40197F1F798
:1030700000C0000087E090EBDC0180930602909393
:103080000702A0930802B093090288E19CE00FB602
:10309000F894A895809360000FBE90936000FFCFD6
:1030A0008091E10108950895089522E02093E900B8
:1030B0002FEF3091E800215035FD06C035ED3A95EF
:1030C000F1F700002111F5CF2091E80025FF0BC09A
:1030D00050E040E066E070E00E94381A8091E8001D
:1030E0008E778093E8000895CF93DF93D82FC92F70
:1030F00081E08093E9008FEF9091E800815095FD89
:1031000006C095ED9A95F1F700008111F5CF8091F9
:10311000E80085FF16C050E040E068E070E08D2FC9
:103120009C2F0E94381A8091E8008E778093E800E7
:1031300088E0ED2FFC2FA9EDB1E001900D928A956A
:10314000E1F7DF91CF91089508950C9449176091AC
:10315000F90181E0611101C080E00C944217909167
:10316000FD0181E0943009F080E06091F9010C9458
:10317000471742E061EC81E00E943A1B42E261ECB9
:1031800082E00E943A1B9091FD0181E0943009F0A9
:1031900080E06091F9010C943D178091FF01893026
:1031A00089F148F4823009F49CC0833009F457C097
:1031B000813041F008958A3009F483C08B3009F4DE
:1031C00069C008958091FE01813A09F047C080915D
:1031D000E800877F8093E8008091020290910302CB
:1031E000892B61F468E089ED91E070E00E94871A14
:1031F0008091E8008B778093E800089560E090E08C
:1032000080E0F3CF8091FE01813241F5809102028E
:1032100090910302029710F58091E800877F8093D8
:10322000E8008091E80082FF15C08091F2008230B2
:1032300031F48091F100813011F0863021F48091D9
:10324000F1008093E1018091E8008B778093E800A2
:103250000C946E1B8091FD018111E3CF0895809144
:10326000FE01813AD9F78091020290910302892BE5
:10327000A9F78091E800877F8093E8008091E800BB
:1032800080FFFCCF809118018093F1008091E800CD
:103290008E77DCCF8091FE01813201F780910202AE
:1032A00090910302892BD1F68091E800877F80936B
:1032B000E8000E946E1B80910002809318010C941C
:1032C000EE058091FE01813249F68091E800877F0A
:1032D0008093E8000E946E1B809101028093E201BE
:1032E00008958091FE01813A09F0B8CF8091E800FD
:1032F000877F8093E8008091E80080FFFCCF809179
:10330000E201C2CF84B7877F84BF0FB6F894A89537
:1033100080916000886180936000109260000FBE11
:1033200080E890E00FB6F89480936100909361007C
:103330000FBE0C944E170E94BE1B0E94111CE2EEA1
:10334000F0E080818460808378940C946C1E8CE023
:1033500091E00C948B168091FD018530A9F4809149
:10336000FD01853011F00C94C0170E9495178091D3
:10337000FB018823A1F30E945817882381F30E9440
:10338000221A0E94EE05EBCF089508950C94C819F7
:10339000FC01CB01DA012F2F332723303105D1F087
:1033A00070F42130310509F43EC02230310569F452
:1033B0008BE390E022E231E02D933C93089521329B
:1033C0003105E9F02232310521F190E080E030E072
:1033D00020E0F2CFCF019927E13059F082309105FA
:1033E00059F0EEE1F1E0892B81F7849190E09F01A3
:1033F000E3CFEAEFF0E0F9CFE4EEF0E0F6CF892B8F
:10340000B9F06130710509F789E090E02DE431E011
:10341000D3CF892B91F061307105B9F68FE490E03C
:103420002FE631E0C9CF82E190E02DE531E0C4CF55
:1034300089E090E024E331E0BFCF80E490E02EEB20
:1034400031E0BACF84E089BD86E089BD09B400FED1
:10345000FDCF8091D8008F7D8093D8008091E000CF
:1034600082608093E0008091E00081FDFCCF0895B0
:10347000AF92BF92CF92DF92FF920F931F93CF93A1
:10348000DF936C01EB018A010E948D1BF82E8111E4
:1034900023C00115110539F0F80180819181C81B05
:1034A000D90BC80ED91EB12CA12C2097A9F0809160
:1034B000E80085FD22C08091E8008E778093E800C7
:1034C00001151105A1F0F801808191818A0D9B1DE4
:1034D0009183808385E0F82E8F2DDF91CF911F910E
:1034E0000F91FF90DF90CF90BF90AF9008950E9412
:1034F0008D1B8823D1F2F82EEFCFF60181916F0159
:103500008093F1002197FFEFAF1ABF0ACECFFC01E5
:10351000CB0120910402309105022617370790F065
:10352000009729F42091E8002E772093E80040E0EE
:10353000009751F4411108C08091E80082FF30C02B
:1035400080E00895C901F3CF2091FD012223A1F16C
:103550002530A1F12091E80023FD2CC02091E80046
:1035600022FDEACF2091E80020FFE2CF2091F20077
:1035700030E0009719F02830310558F041E028304C
:10358000310509F040E02091E8002E772093E80013
:10359000CFCF41914093F10001972F5F3F4FE9CF8B
:1035A0008091FD01882341F0853041F08091E80051
:1035B00083FFC2CF81E0089582E0089583E00895FB
:1035C000FC01CB0120910402309105022617370738
:1035D00090F0009729F42091E8002E772093E800DE
:1035E00040E0009751F4411108C08091E80082FF4B
:1035F00031C080E00895C901F3CF2091FD0122235D
:10360000A9F12530A9F12091E80023FD2DC02091DA
:10361000E80022FDEACF2091E80020FFE2CF2091D0
:10362000F20030E0009719F02830310558F041E001
:103630002830310509F040E02091E8002E772093F2
:10364000E800CFCF44914093F100319601972F5F6E
:103650003F4FE8CF8091FD01882341F0853041F054
:103660008091E80083FFC1CF81E0089582E0089552
:1036700083E00895982F953028F08F708093E900AB
:1036800081E008959093E900242F762F50E0981759
:1036900031F07091EC002091ED005091F00021FD8F
:1036A00002C09F5FE8CF3091EB003E7F3093EB008C
:1036B0003091ED003D7F3093ED003091EB003160B3
:1036C0003093EB007093EC002093ED005093F000EA
:1036D0002091EE0027FDE5CF80E008958091FE0166
:1036E00087FF13C08091E80082FF06C08091E80048
:1036F0008B778093E80004C08091FD018111F2CFA7
:1037000008958091FD018823D9F38091E80080FF1E
:10371000F8CF8091E8008E77ECCF2091E4003091D3
:10372000E50095E6A9012091EC00822F817020FF31
:1037300006C08091E80080FF06C080E008952091D7
:10374000E80022FD1AC08091FD01882389F08530B0
:1037500089F08091EB0085FD0FC02091E40030914D
:10376000E50042175307F9F29150E1F684E008951D
:1037700082E0089583E0089581E008950E941B1C73
:103780000E941E1CE0EEF0E0808181608083E8ED05
:10379000F0E080818F77808319BCE3E6F0E08081E0
:1037A000816080831092FC0108950E941B1C0E947E
:1037B0001E1C8091D8008F778093D8008091D8000C
:1037C00080688093D8008091D8008F7D8093D80046
:1037D00084E089BD86E089BD09B400FEFDCF10926A
:1037E000FD011092F9011092FB011092FA0142E0E2
:1037F00060E080E00E943A1B8091E1008E7F809320
:10380000E1008091E20081608093E2008091E2001B
:1038100088608093E2008091E0008E7F8093E000DA
:103820000895E3E6F0E080818E7F808381E08093DD
:10383000FC010C94D51B1092E20008951092E10057
:1038400008951F920F920FB60F9211242F933F935A
:103850004F935F936F937F938F939F93AF93BF9398
:10386000EF93FF938091E10082FF0BC08091E20013
:1038700082FF07C08091E1008B7F8093E1000E946E
:103880006B1E8091E10080FF19C08091E20080FFF3
:1038900015C08091E2008E7F8093E2008091E2006B
:1038A00080618093E2008091D80080628093D8008C
:1038B00019BC85E08093FD010E94A7188091E1006A
:1038C00084FF29C08091E20084FF25C084E089BD87
:1038D00086E089BD09B400FEFDCF8091D8008F7DC0
:1038E0008093D8008091E1008F7E8093E1008091E9
:1038F000E2008F7E8093E2008091E20081608093FD
:10390000E2008091F901882309F443C084E08093A8
:10391000FD010E94AF188091E10083FF29C08091D2
:10392000E20083FF25C08091E100877F8093E10062
:1039300082E08093FD011092F9018091E1008E7F79
:103940008093E1008091E2008E7F8093E20080917D
:10395000E20080618093E20042E060E080E00E944B
:103960003A1B8091F00088608093F0000E94A518B7
:10397000FF91EF91BF91AF919F918F917F916F9147
:103980005F914F913F912F910F900FBE0F901F901D
:1039900018958091E30087FD02C081E0B8CF83E0F5
:1039A000B6CF1F920F920FB60F921124FF920F9372
:1039B0001F932F933F934F935F936F937F938F93B7
:1039C0009F93AF93BF93CF93DF93EF93FF9309EE52
:1039D00010E0F8018081C091EC00C795CC27C79515
:1039E0008F70FC2EF82A1082C0EFD0E08881877F8C
:1039F000888378940E941A1DF8011082888188605B
:103A00008883CF2DCF70C083FF91EF91DF91CF914D
:103A1000BF91AF919F918F917F916F915F914F91E6
:103A20003F912F911F910F91FF900F900FBE0F901C
:103A30001F9018951F93CF93DF93CDB7DEB7AA974A
:103A40000FB6F894DEBF0FBECDBF8EEF91E0FC0144
:103A500001962091F100208322E086309207B9F789
:103A60000E94CD188091E80083FF1DC18091FE0166
:103A70009091FF019A3008F016C1E92FF0E0E45A66
:103A8000F04E0C94B41E803899F0823809F00BC1C6
:103A9000809102028F70853008F005C18093E900A3
:103AA0008091EB0085FB882780F91092E90006C021
:103AB0008091FA019091FB01911182609091E80050
:103AC000977F9093E8008093F1001092F10080912D
:103AD000E8008E77E4C0882309F4D2C0823009F070
:103AE000E2C0809100028111D5C0809102028F70E6
:103AF0002FEF280F243008F0D6C08093E9002091E2
:103B0000EB0020FFC7C0933031F48091EB0080625E
:103B10008093EB00BFC09091EB0090619093EB001D
:103B200021E030E001C0220F8A95EAF72093EA00F5
:103B30001092EA008091EB008860EACF8111B3C057
:103B4000109100021F778091E3008078812B809391
:103B5000E3008091E800877F8093E8000E946E1B5D
:103B60008091E80080FFFCCF8091E3008068809323
:103B7000E30082E0111183E08093FD0194C080583E
:103B8000823008F090C080910002909101028C3D3B
:103B900023E0920799F583E08A838AE289834FB70D
:103BA000F894DE01139620E03EE051E2E32FF0E0CE
:103BB00050935700849120FF03C082958F703F5F20
:103BC0008F708A30C8F0895C90E08D939D932F5F51
:103BD000243161F74FBF8091E800877F8093E80030
:103BE0006AE270E0CE0101960E94871A8091E80097
:103BF0008B778093E80057C0805DE6CF609102022A
:103C000070910302AE014F5F5F4F0E94C619BC0165
:103C1000892B09F448C08091E800877F8093E800F1
:103C200089819A810E94E01AE1CF8038E1F5809184
:103C3000E800877F8093E8008091F9018093F1008C
:103C400046CF811130C090910002923060F5809192
:103C5000E800877F8093E8009093F9010E946E1B33
:103C60008091F901882311F084E005C08091E30080
:103C700087FDFACF81E08093FD010E94B91813C03F
:103C800080910002813079F481E0933009F080E086
:103C90008093FB011092E9008091E800877F809378
:103CA000E8000E946E1B8091E80083FF0AC08091AB
:103CB000E800877F8093E8008091EB00806280932A
:103CC000EB00AA960FB6F894DEBF0FBECDBFDF9112
:103CD000CF911F9108950895CF938091FD0188237E
:103CE00099F08091E900C091EC00C795CC27C79569
:103CF0008F70C82B1092E9008091E80083FD0E942C
:103D00001A1DCF70C093E900CF910895002480FD63
:103D1000060E660F11F08695D1F7802D08950024C8
:103D2000552704C0080E591F880F991F009729F0C6
:103D300076956795B8F37105B9F7802D952F08959D
:103D400097FB072E16F4009407D077FD09D00E9448
:103D5000BA1E07FC05D03EF4909581959F4F0895BB
:103D6000709561957F4F0895EE0FFF1F0590F491B8
:103D7000E02D0994AA1BBB1B51E107C0AA1FBB1F62
:103D8000A617B70710F0A61BB70B881F991F5A95E7
:103D9000A9F780959095BC01CD010895FB01DC0148
:103DA00004C08D910190801921F441505040C8F712
:103DB000881B990B0895F999FECF92BD81BDF89AA1
:103DC000992780B50895A8E1B0E042E050E00C9456
:103DD0000F1F262FF999FECF92BD81BDF89A01974A
:103DE00000B4021639F01FBA20BD0FB6F894FA9A43
:103DF000F99A0FBE08950396272F0E94EA1E0E948B
:103E0000E91E252F0E94EA1E242F0C94EA1E01961B
:103E1000272F0E94EA1E0C94E91EDC01CB01FC0155
:103E2000F999FECF06C0F2BDE1BDF89A319600B413
:103E30000D9241505040B8F70895F894FFCF9F126B
:103E4000A512A812AE12C312C912CD12D112D512E8
:103E5000DE12DE12DE12B112B612BA12C012D9127E
:103E6000DF12E31238133E13421346134A13F512BE
:103E7000F512F512F512F512F512F5124E13541350
:103E800058130B150F1513152115251529152D156B
:103E900033153B153F1543154715531557155B153E
:103EA0005F15651583156D151D154B154F153715C8
:103EB000691579158C159015431D6B1D531E6B1DCF
:0C3EC000531E9E1DBF1D531E151E211E0B
:103ECC00C800A201280850011E0A140150187418C9
:103EDC0055185318A4185418016764939495963088
:0C3EEC0031323334353637629091920049
:00000001FF
